{
	"Week4_Task.sol": {
		"ATM": {
			"abi": [
				{
					"inputs": [],
					"stateMutability": "nonpayable",
					"type": "constructor"
				},
				{
					"inputs": [
						{
							"internalType": "address",
							"name": "",
							"type": "address"
						}
					],
					"name": "balance",
					"outputs": [
						{
							"internalType": "uint256",
							"name": "",
							"type": "uint256"
						}
					],
					"stateMutability": "view",
					"type": "function"
				},
				{
					"inputs": [],
					"name": "deposit",
					"outputs": [],
					"stateMutability": "payable",
					"type": "function"
				},
				{
					"inputs": [],
					"name": "getBalance",
					"outputs": [
						{
							"internalType": "uint256",
							"name": "",
							"type": "uint256"
						}
					],
					"stateMutability": "view",
					"type": "function"
				},
				{
					"inputs": [],
					"name": "isPaused",
					"outputs": [
						{
							"internalType": "bool",
							"name": "",
							"type": "bool"
						}
					],
					"stateMutability": "view",
					"type": "function"
				},
				{
					"inputs": [],
					"name": "owner",
					"outputs": [
						{
							"internalType": "address",
							"name": "",
							"type": "address"
						}
					],
					"stateMutability": "view",
					"type": "function"
				},
				{
					"inputs": [],
					"name": "togglePause",
					"outputs": [],
					"stateMutability": "nonpayable",
					"type": "function"
				},
				{
					"inputs": [
						{
							"internalType": "uint256",
							"name": "_amount",
							"type": "uint256"
						}
					],
					"name": "withdraw",
					"outputs": [],
					"stateMutability": "nonpayable",
					"type": "function"
				}
			],
			"devdoc": {
				"kind": "dev",
				"methods": {},
				"version": 1
			},
			"evm": {
				"assembly": "    /* \"Week4_Task.sol\":60:1103  contract ATM {... */\n  mstore(0x40, 0x80)\n    /* \"Week4_Task.sol\":411:490  constructor() {... */\n  callvalue\n  dup1\n  iszero\n  tag_1\n  jumpi\n  revert(0x00, 0x00)\ntag_1:\n  pop\n    /* \"Week4_Task.sol\":444:454  msg.sender */\n  caller\n    /* \"Week4_Task.sol\":436:441  owner */\n  0x00\n  0x00\n    /* \"Week4_Task.sol\":436:454  owner = msg.sender */\n  0x0100\n  exp\n  dup2\n  sload\n  dup2\n  0xffffffffffffffffffffffffffffffffffffffff\n  mul\n  not\n  and\n  swap1\n  dup4\n  0xffffffffffffffffffffffffffffffffffffffff\n  and\n  mul\n  or\n  swap1\n  sstore\n  pop\n    /* \"Week4_Task.sol\":477:482  false */\n  0x00\n    /* \"Week4_Task.sol\":466:474  isPaused */\n  0x00\n  0x14\n    /* \"Week4_Task.sol\":466:482  isPaused = false */\n  0x0100\n  exp\n  dup2\n  sload\n  dup2\n  0xff\n  mul\n  not\n  and\n  swap1\n  dup4\n  iszero\n  iszero\n  mul\n  or\n  swap1\n  sstore\n  pop\n    /* \"Week4_Task.sol\":60:1103  contract ATM {... */\n  dataSize(sub_0)\n  dup1\n  dataOffset(sub_0)\n  0x00\n  codecopy\n  0x00\n  return\nstop\n\nsub_0: assembly {\n        /* \"Week4_Task.sol\":60:1103  contract ATM {... */\n      mstore(0x40, 0x80)\n      jumpi(tag_1, lt(calldatasize, 0x04))\n      shr(0xe0, calldataload(0x00))\n      dup1\n      0xb187bd26\n      gt\n      tag_9\n      jumpi\n      dup1\n      0xb187bd26\n      eq\n      tag_5\n      jumpi\n      dup1\n      0xc4ae3168\n      eq\n      tag_6\n      jumpi\n      dup1\n      0xd0e30db0\n      eq\n      tag_7\n      jumpi\n      dup1\n      0xe3d670d7\n      eq\n      tag_8\n      jumpi\n      jump(tag_1)\n    tag_9:\n      dup1\n      0x12065fe0\n      eq\n      tag_2\n      jumpi\n      dup1\n      0x2e1a7d4d\n      eq\n      tag_3\n      jumpi\n      dup1\n      0x8da5cb5b\n      eq\n      tag_4\n      jumpi\n    tag_1:\n      revert(0x00, 0x00)\n        /* \"Week4_Task.sol\":919:1013  function getBalance() public view returns (uint) {... */\n    tag_2:\n      callvalue\n      dup1\n      iszero\n      tag_10\n      jumpi\n      revert(0x00, 0x00)\n    tag_10:\n      pop\n      tag_11\n      tag_12\n      jump\t// in\n    tag_11:\n      mload(0x40)\n      tag_13\n      swap2\n      swap1\n      tag_14\n      jump\t// in\n    tag_13:\n      mload(0x40)\n      dup1\n      swap2\n      sub\n      swap1\n      return\n        /* \"Week4_Task.sol\":666:911  function withdraw(uint _amount) public whenNotPaused {... */\n    tag_3:\n      callvalue\n      dup1\n      iszero\n      tag_15\n      jumpi\n      revert(0x00, 0x00)\n    tag_15:\n      pop\n      tag_16\n      0x04\n      dup1\n      calldatasize\n      sub\n      dup2\n      add\n      swap1\n      tag_17\n      swap2\n      swap1\n      tag_18\n      jump\t// in\n    tag_17:\n      tag_19\n      jump\t// in\n    tag_16:\n      stop\n        /* \"Week4_Task.sol\":80:100  address public owner */\n    tag_4:\n      callvalue\n      dup1\n      iszero\n      tag_20\n      jumpi\n      revert(0x00, 0x00)\n    tag_20:\n      pop\n      tag_21\n      tag_22\n      jump\t// in\n    tag_21:\n      mload(0x40)\n      tag_23\n      swap2\n      swap1\n      tag_24\n      jump\t// in\n    tag_23:\n      mload(0x40)\n      dup1\n      swap2\n      sub\n      swap1\n      return\n        /* \"Week4_Task.sol\":107:127  bool public isPaused */\n    tag_5:\n      callvalue\n      dup1\n      iszero\n      tag_25\n      jumpi\n      revert(0x00, 0x00)\n    tag_25:\n      pop\n      tag_26\n      tag_27\n      jump\t// in\n    tag_26:\n      mload(0x40)\n      tag_28\n      swap2\n      swap1\n      tag_29\n      jump\t// in\n    tag_28:\n      mload(0x40)\n      dup1\n      swap2\n      sub\n      swap1\n      return\n        /* \"Week4_Task.sol\":1021:1100  function togglePause() public onlyOwner {... */\n    tag_6:\n      callvalue\n      dup1\n      iszero\n      tag_30\n      jumpi\n      revert(0x00, 0x00)\n    tag_30:\n      pop\n      tag_31\n      tag_32\n      jump\t// in\n    tag_31:\n      stop\n        /* \"Week4_Task.sol\":499:658  function deposit() public payable whenNotPaused {... */\n    tag_7:\n      tag_33\n      tag_34\n      jump\t// in\n    tag_33:\n      stop\n        /* \"Week4_Task.sol\":136:175  mapping(address => uint) public balance */\n    tag_8:\n      callvalue\n      dup1\n      iszero\n      tag_35\n      jumpi\n      revert(0x00, 0x00)\n    tag_35:\n      pop\n      tag_36\n      0x04\n      dup1\n      calldatasize\n      sub\n      dup2\n      add\n      swap1\n      tag_37\n      swap2\n      swap1\n      tag_38\n      jump\t// in\n    tag_37:\n      tag_39\n      jump\t// in\n    tag_36:\n      mload(0x40)\n      tag_40\n      swap2\n      swap1\n      tag_14\n      jump\t// in\n    tag_40:\n      mload(0x40)\n      dup1\n      swap2\n      sub\n      swap1\n      return\n        /* \"Week4_Task.sol\":919:1013  function getBalance() public view returns (uint) {... */\n    tag_12:\n        /* \"Week4_Task.sol\":962:966  uint */\n      0x00\n        /* \"Week4_Task.sol\":986:993  balance */\n      0x01\n        /* \"Week4_Task.sol\":986:1005  balance[msg.sender] */\n      0x00\n        /* \"Week4_Task.sol\":994:1004  msg.sender */\n      caller\n        /* \"Week4_Task.sol\":986:1005  balance[msg.sender] */\n      0xffffffffffffffffffffffffffffffffffffffff\n      and\n      0xffffffffffffffffffffffffffffffffffffffff\n      and\n      dup2\n      mstore\n      0x20\n      add\n      swap1\n      dup2\n      mstore\n      0x20\n      add\n      0x00\n      keccak256\n      sload\n        /* \"Week4_Task.sol\":979:1005  return balance[msg.sender] */\n      swap1\n      pop\n        /* \"Week4_Task.sol\":919:1013  function getBalance() public view returns (uint) {... */\n      swap1\n      jump\t// out\n        /* \"Week4_Task.sol\":666:911  function withdraw(uint _amount) public whenNotPaused {... */\n    tag_19:\n        /* \"Week4_Task.sol\":337:345  isPaused */\n      0x00\n      0x14\n      swap1\n      sload\n      swap1\n      0x0100\n      exp\n      swap1\n      div\n      0xff\n      and\n        /* \"Week4_Task.sol\":336:345  !isPaused */\n      iszero\n        /* \"Week4_Task.sol\":328:383  require(!isPaused, \"The ATM is currently out of order\") */\n      tag_43\n      jumpi\n      mload(0x40)\n      0x08c379a000000000000000000000000000000000000000000000000000000000\n      dup2\n      mstore\n      0x04\n      add\n      tag_44\n      swap1\n      tag_45\n      jump\t// in\n    tag_44:\n      mload(0x40)\n      dup1\n      swap2\n      sub\n      swap1\n      revert\n    tag_43:\n        /* \"Week4_Task.sol\":761:768  _amount */\n      dup1\n        /* \"Week4_Task.sol\":738:745  balance */\n      0x01\n        /* \"Week4_Task.sol\":738:757  balance[msg.sender] */\n      0x00\n        /* \"Week4_Task.sol\":746:756  msg.sender */\n      caller\n        /* \"Week4_Task.sol\":738:757  balance[msg.sender] */\n      0xffffffffffffffffffffffffffffffffffffffff\n      and\n      0xffffffffffffffffffffffffffffffffffffffff\n      and\n      dup2\n      mstore\n      0x20\n      add\n      swap1\n      dup2\n      mstore\n      0x20\n      add\n      0x00\n      keccak256\n      sload\n        /* \"Week4_Task.sol\":738:768  balance[msg.sender] >= _amount */\n      lt\n      iszero\n        /* \"Week4_Task.sol\":730:794  require(balance[msg.sender] >= _amount, \"Insufficient balance!\") */\n      tag_47\n      jumpi\n      mload(0x40)\n      0x08c379a000000000000000000000000000000000000000000000000000000000\n      dup2\n      mstore\n      0x04\n      add\n      tag_48\n      swap1\n      tag_49\n      jump\t// in\n    tag_48:\n      mload(0x40)\n      dup1\n      swap2\n      sub\n      swap1\n      revert\n    tag_47:\n        /* \"Week4_Task.sol\":838:845  _amount */\n      dup1\n        /* \"Week4_Task.sol\":815:822  balance */\n      0x01\n        /* \"Week4_Task.sol\":815:834  balance[msg.sender] */\n      0x00\n        /* \"Week4_Task.sol\":823:833  msg.sender */\n      caller\n        /* \"Week4_Task.sol\":815:834  balance[msg.sender] */\n      0xffffffffffffffffffffffffffffffffffffffff\n      and\n      0xffffffffffffffffffffffffffffffffffffffff\n      and\n      dup2\n      mstore\n      0x20\n      add\n      swap1\n      dup2\n      mstore\n      0x20\n      add\n      0x00\n      keccak256\n      0x00\n        /* \"Week4_Task.sol\":815:845  balance[msg.sender] -= _amount */\n      dup3\n      dup3\n      sload\n      tag_50\n      swap2\n      swap1\n      tag_51\n      jump\t// in\n    tag_50:\n      swap3\n      pop\n      pop\n      dup2\n      swap1\n      sstore\n      pop\n        /* \"Week4_Task.sol\":874:884  msg.sender */\n      caller\n        /* \"Week4_Task.sol\":866:894  payable(msg.sender).transfer */\n      0xffffffffffffffffffffffffffffffffffffffff\n      and\n        /* \"Week4_Task.sol\":866:903  payable(msg.sender).transfer(_amount) */\n      0x08fc\n        /* \"Week4_Task.sol\":895:902  _amount */\n      dup3\n        /* \"Week4_Task.sol\":866:903  payable(msg.sender).transfer(_amount) */\n      swap1\n      dup2\n      iszero\n      mul\n      swap1\n      mload(0x40)\n      0x00\n      mload(0x40)\n      dup1\n      dup4\n      sub\n      dup2\n      dup6\n      dup9\n      dup9\n      call\n      swap4\n      pop\n      pop\n      pop\n      pop\n      iszero\n      dup1\n      iszero\n      tag_53\n      jumpi\n      returndatacopy(0x00, 0x00, returndatasize)\n      revert(0x00, returndatasize)\n    tag_53:\n      pop\n        /* \"Week4_Task.sol\":666:911  function withdraw(uint _amount) public whenNotPaused {... */\n      pop\n      jump\t// out\n        /* \"Week4_Task.sol\":80:100  address public owner */\n    tag_22:\n      0x00\n      0x00\n      swap1\n      sload\n      swap1\n      0x0100\n      exp\n      swap1\n      div\n      0xffffffffffffffffffffffffffffffffffffffff\n      and\n      dup2\n      jump\t// out\n        /* \"Week4_Task.sol\":107:127  bool public isPaused */\n    tag_27:\n      0x00\n      0x14\n      swap1\n      sload\n      swap1\n      0x0100\n      exp\n      swap1\n      div\n      0xff\n      and\n      dup2\n      jump\t// out\n        /* \"Week4_Task.sol\":1021:1100  function togglePause() public onlyOwner {... */\n    tag_32:\n        /* \"Week4_Task.sol\":241:246  owner */\n      0x00\n      0x00\n      swap1\n      sload\n      swap1\n      0x0100\n      exp\n      swap1\n      div\n      0xffffffffffffffffffffffffffffffffffffffff\n      and\n        /* \"Week4_Task.sol\":227:246  msg.sender == owner */\n      0xffffffffffffffffffffffffffffffffffffffff\n      and\n        /* \"Week4_Task.sol\":227:237  msg.sender */\n      caller\n        /* \"Week4_Task.sol\":227:246  msg.sender == owner */\n      0xffffffffffffffffffffffffffffffffffffffff\n      and\n      eq\n        /* \"Week4_Task.sol\":219:264  require(msg.sender == owner, \"Not the owner\") */\n      tag_55\n      jumpi\n      mload(0x40)\n      0x08c379a000000000000000000000000000000000000000000000000000000000\n      dup2\n      mstore\n      0x04\n      add\n      tag_56\n      swap1\n      tag_57\n      jump\t// in\n    tag_56:\n      mload(0x40)\n      dup1\n      swap2\n      sub\n      swap1\n      revert\n    tag_55:\n        /* \"Week4_Task.sol\":1084:1092  isPaused */\n      0x00\n      0x14\n      swap1\n      sload\n      swap1\n      0x0100\n      exp\n      swap1\n      div\n      0xff\n      and\n        /* \"Week4_Task.sol\":1083:1092  !isPaused */\n      iszero\n        /* \"Week4_Task.sol\":1072:1080  isPaused */\n      0x00\n      0x14\n        /* \"Week4_Task.sol\":1072:1092  isPaused = !isPaused */\n      0x0100\n      exp\n      dup2\n      sload\n      dup2\n      0xff\n      mul\n      not\n      and\n      swap1\n      dup4\n      iszero\n      iszero\n      mul\n      or\n      swap1\n      sstore\n      pop\n        /* \"Week4_Task.sol\":1021:1100  function togglePause() public onlyOwner {... */\n      jump\t// out\n        /* \"Week4_Task.sol\":499:658  function deposit() public payable whenNotPaused {... */\n    tag_34:\n        /* \"Week4_Task.sol\":337:345  isPaused */\n      0x00\n      0x14\n      swap1\n      sload\n      swap1\n      0x0100\n      exp\n      swap1\n      div\n      0xff\n      and\n        /* \"Week4_Task.sol\":336:345  !isPaused */\n      iszero\n        /* \"Week4_Task.sol\":328:383  require(!isPaused, \"The ATM is currently out of order\") */\n      tag_60\n      jumpi\n      mload(0x40)\n      0x08c379a000000000000000000000000000000000000000000000000000000000\n      dup2\n      mstore\n      0x04\n      add\n      tag_61\n      swap1\n      tag_45\n      jump\t// in\n    tag_61:\n      mload(0x40)\n      dup1\n      swap2\n      sub\n      swap1\n      revert\n    tag_60:\n        /* \"Week4_Task.sol\":578:579  0 */\n      0x00\n        /* \"Week4_Task.sol\":566:575  msg.value */\n      callvalue\n        /* \"Week4_Task.sol\":566:579  msg.value > 0 */\n      gt\n        /* \"Week4_Task.sol\":558:607  require(msg.value > 0, \"You must send something\") */\n      tag_63\n      jumpi\n      mload(0x40)\n      0x08c379a000000000000000000000000000000000000000000000000000000000\n      dup2\n      mstore\n      0x04\n      add\n      tag_64\n      swap1\n      tag_65\n      jump\t// in\n    tag_64:\n      mload(0x40)\n      dup1\n      swap2\n      sub\n      swap1\n      revert\n    tag_63:\n        /* \"Week4_Task.sol\":641:650  msg.value */\n      callvalue\n        /* \"Week4_Task.sol\":618:625  balance */\n      0x01\n        /* \"Week4_Task.sol\":618:637  balance[msg.sender] */\n      0x00\n        /* \"Week4_Task.sol\":626:636  msg.sender */\n      caller\n        /* \"Week4_Task.sol\":618:637  balance[msg.sender] */\n      0xffffffffffffffffffffffffffffffffffffffff\n      and\n      0xffffffffffffffffffffffffffffffffffffffff\n      and\n      dup2\n      mstore\n      0x20\n      add\n      swap1\n      dup2\n      mstore\n      0x20\n      add\n      0x00\n      keccak256\n      0x00\n        /* \"Week4_Task.sol\":618:650  balance[msg.sender] += msg.value */\n      dup3\n      dup3\n      sload\n      tag_66\n      swap2\n      swap1\n      tag_67\n      jump\t// in\n    tag_66:\n      swap3\n      pop\n      pop\n      dup2\n      swap1\n      sstore\n      pop\n        /* \"Week4_Task.sol\":499:658  function deposit() public payable whenNotPaused {... */\n      jump\t// out\n        /* \"Week4_Task.sol\":136:175  mapping(address => uint) public balance */\n    tag_39:\n      mstore(0x20, 0x01)\n      dup1\n      0x00\n      mstore\n      keccak256(0x00, 0x40)\n      0x00\n      swap2\n      pop\n      swap1\n      pop\n      sload\n      dup2\n      jump\t// out\n        /* \"#utility.yul\":7:84   */\n    tag_68:\n        /* \"#utility.yul\":44:51   */\n      0x00\n        /* \"#utility.yul\":73:78   */\n      dup2\n        /* \"#utility.yul\":62:78   */\n      swap1\n      pop\n        /* \"#utility.yul\":7:84   */\n      swap2\n      swap1\n      pop\n      jump\t// out\n        /* \"#utility.yul\":90:208   */\n    tag_69:\n        /* \"#utility.yul\":177:201   */\n      tag_95\n        /* \"#utility.yul\":195:200   */\n      dup2\n        /* \"#utility.yul\":177:201   */\n      tag_68\n      jump\t// in\n    tag_95:\n        /* \"#utility.yul\":172:175   */\n      dup3\n        /* \"#utility.yul\":165:202   */\n      mstore\n        /* \"#utility.yul\":90:208   */\n      pop\n      pop\n      jump\t// out\n        /* \"#utility.yul\":214:436   */\n    tag_14:\n        /* \"#utility.yul\":307:311   */\n      0x00\n        /* \"#utility.yul\":345:347   */\n      0x20\n        /* \"#utility.yul\":334:343   */\n      dup3\n        /* \"#utility.yul\":330:348   */\n      add\n        /* \"#utility.yul\":322:348   */\n      swap1\n      pop\n        /* \"#utility.yul\":358:429   */\n      tag_97\n        /* \"#utility.yul\":426:427   */\n      0x00\n        /* \"#utility.yul\":415:424   */\n      dup4\n        /* \"#utility.yul\":411:428   */\n      add\n        /* \"#utility.yul\":402:408   */\n      dup5\n        /* \"#utility.yul\":358:429   */\n      tag_69\n      jump\t// in\n    tag_97:\n        /* \"#utility.yul\":214:436   */\n      swap3\n      swap2\n      pop\n      pop\n      jump\t// out\n        /* \"#utility.yul\":523:640   */\n    tag_71:\n        /* \"#utility.yul\":632:633   */\n      0x00\n        /* \"#utility.yul\":629:630   */\n      0x00\n        /* \"#utility.yul\":622:634   */\n      revert\n        /* \"#utility.yul\":769:891   */\n    tag_73:\n        /* \"#utility.yul\":842:866   */\n      tag_102\n        /* \"#utility.yul\":860:865   */\n      dup2\n        /* \"#utility.yul\":842:866   */\n      tag_68\n      jump\t// in\n    tag_102:\n        /* \"#utility.yul\":835:840   */\n      dup2\n        /* \"#utility.yul\":832:867   */\n      eq\n        /* \"#utility.yul\":822:885   */\n      tag_103\n      jumpi\n        /* \"#utility.yul\":881:882   */\n      0x00\n        /* \"#utility.yul\":878:879   */\n      0x00\n        /* \"#utility.yul\":871:883   */\n      revert\n        /* \"#utility.yul\":822:885   */\n    tag_103:\n        /* \"#utility.yul\":769:891   */\n      pop\n      jump\t// out\n        /* \"#utility.yul\":897:1036   */\n    tag_74:\n        /* \"#utility.yul\":943:948   */\n      0x00\n        /* \"#utility.yul\":981:987   */\n      dup2\n        /* \"#utility.yul\":968:988   */\n      calldataload\n        /* \"#utility.yul\":959:988   */\n      swap1\n      pop\n        /* \"#utility.yul\":997:1030   */\n      tag_105\n        /* \"#utility.yul\":1024:1029   */\n      dup2\n        /* \"#utility.yul\":997:1030   */\n      tag_73\n      jump\t// in\n    tag_105:\n        /* \"#utility.yul\":897:1036   */\n      swap3\n      swap2\n      pop\n      pop\n      jump\t// out\n        /* \"#utility.yul\":1042:1371   */\n    tag_18:\n        /* \"#utility.yul\":1101:1107   */\n      0x00\n        /* \"#utility.yul\":1150:1152   */\n      0x20\n        /* \"#utility.yul\":1138:1147   */\n      dup3\n        /* \"#utility.yul\":1129:1136   */\n      dup5\n        /* \"#utility.yul\":1125:1148   */\n      sub\n        /* \"#utility.yul\":1121:1153   */\n      slt\n        /* \"#utility.yul\":1118:1237   */\n      iszero\n      tag_107\n      jumpi\n        /* \"#utility.yul\":1156:1235   */\n      tag_108\n      tag_71\n      jump\t// in\n    tag_108:\n        /* \"#utility.yul\":1118:1237   */\n    tag_107:\n        /* \"#utility.yul\":1276:1277   */\n      0x00\n        /* \"#utility.yul\":1301:1354   */\n      tag_109\n        /* \"#utility.yul\":1346:1353   */\n      dup5\n        /* \"#utility.yul\":1337:1343   */\n      dup3\n        /* \"#utility.yul\":1326:1335   */\n      dup6\n        /* \"#utility.yul\":1322:1344   */\n      add\n        /* \"#utility.yul\":1301:1354   */\n      tag_74\n      jump\t// in\n    tag_109:\n        /* \"#utility.yul\":1291:1354   */\n      swap2\n      pop\n        /* \"#utility.yul\":1247:1364   */\n      pop\n        /* \"#utility.yul\":1042:1371   */\n      swap3\n      swap2\n      pop\n      pop\n      jump\t// out\n        /* \"#utility.yul\":1377:1503   */\n    tag_75:\n        /* \"#utility.yul\":1414:1421   */\n      0x00\n        /* \"#utility.yul\":1454:1496   */\n      0xffffffffffffffffffffffffffffffffffffffff\n        /* \"#utility.yul\":1447:1452   */\n      dup3\n        /* \"#utility.yul\":1443:1497   */\n      and\n        /* \"#utility.yul\":1432:1497   */\n      swap1\n      pop\n        /* \"#utility.yul\":1377:1503   */\n      swap2\n      swap1\n      pop\n      jump\t// out\n        /* \"#utility.yul\":1509:1605   */\n    tag_76:\n        /* \"#utility.yul\":1546:1553   */\n      0x00\n        /* \"#utility.yul\":1575:1599   */\n      tag_112\n        /* \"#utility.yul\":1593:1598   */\n      dup3\n        /* \"#utility.yul\":1575:1599   */\n      tag_75\n      jump\t// in\n    tag_112:\n        /* \"#utility.yul\":1564:1599   */\n      swap1\n      pop\n        /* \"#utility.yul\":1509:1605   */\n      swap2\n      swap1\n      pop\n      jump\t// out\n        /* \"#utility.yul\":1611:1729   */\n    tag_77:\n        /* \"#utility.yul\":1698:1722   */\n      tag_114\n        /* \"#utility.yul\":1716:1721   */\n      dup2\n        /* \"#utility.yul\":1698:1722   */\n      tag_76\n      jump\t// in\n    tag_114:\n        /* \"#utility.yul\":1693:1696   */\n      dup3\n        /* \"#utility.yul\":1686:1723   */\n      mstore\n        /* \"#utility.yul\":1611:1729   */\n      pop\n      pop\n      jump\t// out\n        /* \"#utility.yul\":1735:1957   */\n    tag_24:\n        /* \"#utility.yul\":1828:1832   */\n      0x00\n        /* \"#utility.yul\":1866:1868   */\n      0x20\n        /* \"#utility.yul\":1855:1864   */\n      dup3\n        /* \"#utility.yul\":1851:1869   */\n      add\n        /* \"#utility.yul\":1843:1869   */\n      swap1\n      pop\n        /* \"#utility.yul\":1879:1950   */\n      tag_116\n        /* \"#utility.yul\":1947:1948   */\n      0x00\n        /* \"#utility.yul\":1936:1945   */\n      dup4\n        /* \"#utility.yul\":1932:1949   */\n      add\n        /* \"#utility.yul\":1923:1929   */\n      dup5\n        /* \"#utility.yul\":1879:1950   */\n      tag_77\n      jump\t// in\n    tag_116:\n        /* \"#utility.yul\":1735:1957   */\n      swap3\n      swap2\n      pop\n      pop\n      jump\t// out\n        /* \"#utility.yul\":1963:2053   */\n    tag_78:\n        /* \"#utility.yul\":1997:2004   */\n      0x00\n        /* \"#utility.yul\":2040:2045   */\n      dup2\n        /* \"#utility.yul\":2033:2046   */\n      iszero\n        /* \"#utility.yul\":2026:2047   */\n      iszero\n        /* \"#utility.yul\":2015:2047   */\n      swap1\n      pop\n        /* \"#utility.yul\":1963:2053   */\n      swap2\n      swap1\n      pop\n      jump\t// out\n        /* \"#utility.yul\":2059:2168   */\n    tag_79:\n        /* \"#utility.yul\":2140:2161   */\n      tag_119\n        /* \"#utility.yul\":2155:2160   */\n      dup2\n        /* \"#utility.yul\":2140:2161   */\n      tag_78\n      jump\t// in\n    tag_119:\n        /* \"#utility.yul\":2135:2138   */\n      dup3\n        /* \"#utility.yul\":2128:2162   */\n      mstore\n        /* \"#utility.yul\":2059:2168   */\n      pop\n      pop\n      jump\t// out\n        /* \"#utility.yul\":2174:2384   */\n    tag_29:\n        /* \"#utility.yul\":2261:2265   */\n      0x00\n        /* \"#utility.yul\":2299:2301   */\n      0x20\n        /* \"#utility.yul\":2288:2297   */\n      dup3\n        /* \"#utility.yul\":2284:2302   */\n      add\n        /* \"#utility.yul\":2276:2302   */\n      swap1\n      pop\n        /* \"#utility.yul\":2312:2377   */\n      tag_121\n        /* \"#utility.yul\":2374:2375   */\n      0x00\n        /* \"#utility.yul\":2363:2372   */\n      dup4\n        /* \"#utility.yul\":2359:2376   */\n      add\n        /* \"#utility.yul\":2350:2356   */\n      dup5\n        /* \"#utility.yul\":2312:2377   */\n      tag_79\n      jump\t// in\n    tag_121:\n        /* \"#utility.yul\":2174:2384   */\n      swap3\n      swap2\n      pop\n      pop\n      jump\t// out\n        /* \"#utility.yul\":2390:2512   */\n    tag_80:\n        /* \"#utility.yul\":2463:2487   */\n      tag_123\n        /* \"#utility.yul\":2481:2486   */\n      dup2\n        /* \"#utility.yul\":2463:2487   */\n      tag_76\n      jump\t// in\n    tag_123:\n        /* \"#utility.yul\":2456:2461   */\n      dup2\n        /* \"#utility.yul\":2453:2488   */\n      eq\n        /* \"#utility.yul\":2443:2506   */\n      tag_124\n      jumpi\n        /* \"#utility.yul\":2502:2503   */\n      0x00\n        /* \"#utility.yul\":2499:2500   */\n      0x00\n        /* \"#utility.yul\":2492:2504   */\n      revert\n        /* \"#utility.yul\":2443:2506   */\n    tag_124:\n        /* \"#utility.yul\":2390:2512   */\n      pop\n      jump\t// out\n        /* \"#utility.yul\":2518:2657   */\n    tag_81:\n        /* \"#utility.yul\":2564:2569   */\n      0x00\n        /* \"#utility.yul\":2602:2608   */\n      dup2\n        /* \"#utility.yul\":2589:2609   */\n      calldataload\n        /* \"#utility.yul\":2580:2609   */\n      swap1\n      pop\n        /* \"#utility.yul\":2618:2651   */\n      tag_126\n        /* \"#utility.yul\":2645:2650   */\n      dup2\n        /* \"#utility.yul\":2618:2651   */\n      tag_80\n      jump\t// in\n    tag_126:\n        /* \"#utility.yul\":2518:2657   */\n      swap3\n      swap2\n      pop\n      pop\n      jump\t// out\n        /* \"#utility.yul\":2663:2992   */\n    tag_38:\n        /* \"#utility.yul\":2722:2728   */\n      0x00\n        /* \"#utility.yul\":2771:2773   */\n      0x20\n        /* \"#utility.yul\":2759:2768   */\n      dup3\n        /* \"#utility.yul\":2750:2757   */\n      dup5\n        /* \"#utility.yul\":2746:2769   */\n      sub\n        /* \"#utility.yul\":2742:2774   */\n      slt\n        /* \"#utility.yul\":2739:2858   */\n      iszero\n      tag_128\n      jumpi\n        /* \"#utility.yul\":2777:2856   */\n      tag_129\n      tag_71\n      jump\t// in\n    tag_129:\n        /* \"#utility.yul\":2739:2858   */\n    tag_128:\n        /* \"#utility.yul\":2897:2898   */\n      0x00\n        /* \"#utility.yul\":2922:2975   */\n      tag_130\n        /* \"#utility.yul\":2967:2974   */\n      dup5\n        /* \"#utility.yul\":2958:2964   */\n      dup3\n        /* \"#utility.yul\":2947:2956   */\n      dup6\n        /* \"#utility.yul\":2943:2965   */\n      add\n        /* \"#utility.yul\":2922:2975   */\n      tag_81\n      jump\t// in\n    tag_130:\n        /* \"#utility.yul\":2912:2975   */\n      swap2\n      pop\n        /* \"#utility.yul\":2868:2985   */\n      pop\n        /* \"#utility.yul\":2663:2992   */\n      swap3\n      swap2\n      pop\n      pop\n      jump\t// out\n        /* \"#utility.yul\":2998:3167   */\n    tag_82:\n        /* \"#utility.yul\":3082:3093   */\n      0x00\n        /* \"#utility.yul\":3116:3122   */\n      dup3\n        /* \"#utility.yul\":3111:3114   */\n      dup3\n        /* \"#utility.yul\":3104:3123   */\n      mstore\n        /* \"#utility.yul\":3156:3160   */\n      0x20\n        /* \"#utility.yul\":3151:3154   */\n      dup3\n        /* \"#utility.yul\":3147:3161   */\n      add\n        /* \"#utility.yul\":3132:3161   */\n      swap1\n      pop\n        /* \"#utility.yul\":2998:3167   */\n      swap3\n      swap2\n      pop\n      pop\n      jump\t// out\n        /* \"#utility.yul\":3173:3393   */\n    tag_83:\n        /* \"#utility.yul\":3313:3347   */\n      0x5468652041544d2069732063757272656e746c79206f7574206f66206f726465\n        /* \"#utility.yul\":3309:3310   */\n      0x00\n        /* \"#utility.yul\":3301:3307   */\n      dup3\n        /* \"#utility.yul\":3297:3311   */\n      add\n        /* \"#utility.yul\":3290:3348   */\n      mstore\n        /* \"#utility.yul\":3382:3385   */\n      0x7200000000000000000000000000000000000000000000000000000000000000\n        /* \"#utility.yul\":3377:3379   */\n      0x20\n        /* \"#utility.yul\":3369:3375   */\n      dup3\n        /* \"#utility.yul\":3365:3380   */\n      add\n        /* \"#utility.yul\":3358:3386   */\n      mstore\n        /* \"#utility.yul\":3173:3393   */\n      pop\n      jump\t// out\n        /* \"#utility.yul\":3399:3765   */\n    tag_84:\n        /* \"#utility.yul\":3541:3544   */\n      0x00\n        /* \"#utility.yul\":3562:3629   */\n      tag_134\n        /* \"#utility.yul\":3626:3628   */\n      0x21\n        /* \"#utility.yul\":3621:3624   */\n      dup4\n        /* \"#utility.yul\":3562:3629   */\n      tag_82\n      jump\t// in\n    tag_134:\n        /* \"#utility.yul\":3555:3629   */\n      swap2\n      pop\n        /* \"#utility.yul\":3638:3731   */\n      tag_135\n        /* \"#utility.yul\":3727:3730   */\n      dup3\n        /* \"#utility.yul\":3638:3731   */\n      tag_83\n      jump\t// in\n    tag_135:\n        /* \"#utility.yul\":3756:3758   */\n      0x40\n        /* \"#utility.yul\":3751:3754   */\n      dup3\n        /* \"#utility.yul\":3747:3759   */\n      add\n        /* \"#utility.yul\":3740:3759   */\n      swap1\n      pop\n        /* \"#utility.yul\":3399:3765   */\n      swap2\n      swap1\n      pop\n      jump\t// out\n        /* \"#utility.yul\":3771:4190   */\n    tag_45:\n        /* \"#utility.yul\":3937:3941   */\n      0x00\n        /* \"#utility.yul\":3975:3977   */\n      0x20\n        /* \"#utility.yul\":3964:3973   */\n      dup3\n        /* \"#utility.yul\":3960:3978   */\n      add\n        /* \"#utility.yul\":3952:3978   */\n      swap1\n      pop\n        /* \"#utility.yul\":4024:4033   */\n      dup2\n        /* \"#utility.yul\":4018:4022   */\n      dup2\n        /* \"#utility.yul\":4014:4034   */\n      sub\n        /* \"#utility.yul\":4010:4011   */\n      0x00\n        /* \"#utility.yul\":3999:4008   */\n      dup4\n        /* \"#utility.yul\":3995:4012   */\n      add\n        /* \"#utility.yul\":3988:4035   */\n      mstore\n        /* \"#utility.yul\":4052:4183   */\n      tag_137\n        /* \"#utility.yul\":4178:4182   */\n      dup2\n        /* \"#utility.yul\":4052:4183   */\n      tag_84\n      jump\t// in\n    tag_137:\n        /* \"#utility.yul\":4044:4183   */\n      swap1\n      pop\n        /* \"#utility.yul\":3771:4190   */\n      swap2\n      swap1\n      pop\n      jump\t// out\n        /* \"#utility.yul\":4196:4367   */\n    tag_85:\n        /* \"#utility.yul\":4336:4359   */\n      0x496e73756666696369656e742062616c616e6365210000000000000000000000\n        /* \"#utility.yul\":4332:4333   */\n      0x00\n        /* \"#utility.yul\":4324:4330   */\n      dup3\n        /* \"#utility.yul\":4320:4334   */\n      add\n        /* \"#utility.yul\":4313:4360   */\n      mstore\n        /* \"#utility.yul\":4196:4367   */\n      pop\n      jump\t// out\n        /* \"#utility.yul\":4373:4739   */\n    tag_86:\n        /* \"#utility.yul\":4515:4518   */\n      0x00\n        /* \"#utility.yul\":4536:4603   */\n      tag_140\n        /* \"#utility.yul\":4600:4602   */\n      0x15\n        /* \"#utility.yul\":4595:4598   */\n      dup4\n        /* \"#utility.yul\":4536:4603   */\n      tag_82\n      jump\t// in\n    tag_140:\n        /* \"#utility.yul\":4529:4603   */\n      swap2\n      pop\n        /* \"#utility.yul\":4612:4705   */\n      tag_141\n        /* \"#utility.yul\":4701:4704   */\n      dup3\n        /* \"#utility.yul\":4612:4705   */\n      tag_85\n      jump\t// in\n    tag_141:\n        /* \"#utility.yul\":4730:4732   */\n      0x20\n        /* \"#utility.yul\":4725:4728   */\n      dup3\n        /* \"#utility.yul\":4721:4733   */\n      add\n        /* \"#utility.yul\":4714:4733   */\n      swap1\n      pop\n        /* \"#utility.yul\":4373:4739   */\n      swap2\n      swap1\n      pop\n      jump\t// out\n        /* \"#utility.yul\":4745:5164   */\n    tag_49:\n        /* \"#utility.yul\":4911:4915   */\n      0x00\n        /* \"#utility.yul\":4949:4951   */\n      0x20\n        /* \"#utility.yul\":4938:4947   */\n      dup3\n        /* \"#utility.yul\":4934:4952   */\n      add\n        /* \"#utility.yul\":4926:4952   */\n      swap1\n      pop\n        /* \"#utility.yul\":4998:5007   */\n      dup2\n        /* \"#utility.yul\":4992:4996   */\n      dup2\n        /* \"#utility.yul\":4988:5008   */\n      sub\n        /* \"#utility.yul\":4984:4985   */\n      0x00\n        /* \"#utility.yul\":4973:4982   */\n      dup4\n        /* \"#utility.yul\":4969:4986   */\n      add\n        /* \"#utility.yul\":4962:5009   */\n      mstore\n        /* \"#utility.yul\":5026:5157   */\n      tag_143\n        /* \"#utility.yul\":5152:5156   */\n      dup2\n        /* \"#utility.yul\":5026:5157   */\n      tag_86\n      jump\t// in\n    tag_143:\n        /* \"#utility.yul\":5018:5157   */\n      swap1\n      pop\n        /* \"#utility.yul\":4745:5164   */\n      swap2\n      swap1\n      pop\n      jump\t// out\n        /* \"#utility.yul\":5170:5350   */\n    tag_87:\n        /* \"#utility.yul\":5218:5295   */\n      0x4e487b7100000000000000000000000000000000000000000000000000000000\n        /* \"#utility.yul\":5215:5216   */\n      0x00\n        /* \"#utility.yul\":5208:5296   */\n      mstore\n        /* \"#utility.yul\":5315:5319   */\n      0x11\n        /* \"#utility.yul\":5312:5313   */\n      0x04\n        /* \"#utility.yul\":5305:5320   */\n      mstore\n        /* \"#utility.yul\":5339:5343   */\n      0x24\n        /* \"#utility.yul\":5336:5337   */\n      0x00\n        /* \"#utility.yul\":5329:5344   */\n      revert\n        /* \"#utility.yul\":5356:5550   */\n    tag_51:\n        /* \"#utility.yul\":5396:5400   */\n      0x00\n        /* \"#utility.yul\":5416:5436   */\n      tag_146\n        /* \"#utility.yul\":5434:5435   */\n      dup3\n        /* \"#utility.yul\":5416:5436   */\n      tag_68\n      jump\t// in\n    tag_146:\n        /* \"#utility.yul\":5411:5436   */\n      swap2\n      pop\n        /* \"#utility.yul\":5450:5470   */\n      tag_147\n        /* \"#utility.yul\":5468:5469   */\n      dup4\n        /* \"#utility.yul\":5450:5470   */\n      tag_68\n      jump\t// in\n    tag_147:\n        /* \"#utility.yul\":5445:5470   */\n      swap3\n      pop\n        /* \"#utility.yul\":5494:5495   */\n      dup3\n        /* \"#utility.yul\":5491:5492   */\n      dup3\n        /* \"#utility.yul\":5487:5496   */\n      sub\n        /* \"#utility.yul\":5479:5496   */\n      swap1\n      pop\n        /* \"#utility.yul\":5518:5519   */\n      dup2\n        /* \"#utility.yul\":5512:5516   */\n      dup2\n        /* \"#utility.yul\":5509:5520   */\n      gt\n        /* \"#utility.yul\":5506:5543   */\n      iszero\n      tag_148\n      jumpi\n        /* \"#utility.yul\":5523:5541   */\n      tag_149\n      tag_87\n      jump\t// in\n    tag_149:\n        /* \"#utility.yul\":5506:5543   */\n    tag_148:\n        /* \"#utility.yul\":5356:5550   */\n      swap3\n      swap2\n      pop\n      pop\n      jump\t// out\n        /* \"#utility.yul\":5556:5719   */\n    tag_88:\n        /* \"#utility.yul\":5696:5711   */\n      0x4e6f7420746865206f776e657200000000000000000000000000000000000000\n        /* \"#utility.yul\":5692:5693   */\n      0x00\n        /* \"#utility.yul\":5684:5690   */\n      dup3\n        /* \"#utility.yul\":5680:5694   */\n      add\n        /* \"#utility.yul\":5673:5712   */\n      mstore\n        /* \"#utility.yul\":5556:5719   */\n      pop\n      jump\t// out\n        /* \"#utility.yul\":5725:6091   */\n    tag_89:\n        /* \"#utility.yul\":5867:5870   */\n      0x00\n        /* \"#utility.yul\":5888:5955   */\n      tag_152\n        /* \"#utility.yul\":5952:5954   */\n      0x0d\n        /* \"#utility.yul\":5947:5950   */\n      dup4\n        /* \"#utility.yul\":5888:5955   */\n      tag_82\n      jump\t// in\n    tag_152:\n        /* \"#utility.yul\":5881:5955   */\n      swap2\n      pop\n        /* \"#utility.yul\":5964:6057   */\n      tag_153\n        /* \"#utility.yul\":6053:6056   */\n      dup3\n        /* \"#utility.yul\":5964:6057   */\n      tag_88\n      jump\t// in\n    tag_153:\n        /* \"#utility.yul\":6082:6084   */\n      0x20\n        /* \"#utility.yul\":6077:6080   */\n      dup3\n        /* \"#utility.yul\":6073:6085   */\n      add\n        /* \"#utility.yul\":6066:6085   */\n      swap1\n      pop\n        /* \"#utility.yul\":5725:6091   */\n      swap2\n      swap1\n      pop\n      jump\t// out\n        /* \"#utility.yul\":6097:6516   */\n    tag_57:\n        /* \"#utility.yul\":6263:6267   */\n      0x00\n        /* \"#utility.yul\":6301:6303   */\n      0x20\n        /* \"#utility.yul\":6290:6299   */\n      dup3\n        /* \"#utility.yul\":6286:6304   */\n      add\n        /* \"#utility.yul\":6278:6304   */\n      swap1\n      pop\n        /* \"#utility.yul\":6350:6359   */\n      dup2\n        /* \"#utility.yul\":6344:6348   */\n      dup2\n        /* \"#utility.yul\":6340:6360   */\n      sub\n        /* \"#utility.yul\":6336:6337   */\n      0x00\n        /* \"#utility.yul\":6325:6334   */\n      dup4\n        /* \"#utility.yul\":6321:6338   */\n      add\n        /* \"#utility.yul\":6314:6361   */\n      mstore\n        /* \"#utility.yul\":6378:6509   */\n      tag_155\n        /* \"#utility.yul\":6504:6508   */\n      dup2\n        /* \"#utility.yul\":6378:6509   */\n      tag_89\n      jump\t// in\n    tag_155:\n        /* \"#utility.yul\":6370:6509   */\n      swap1\n      pop\n        /* \"#utility.yul\":6097:6516   */\n      swap2\n      swap1\n      pop\n      jump\t// out\n        /* \"#utility.yul\":6522:6695   */\n    tag_90:\n        /* \"#utility.yul\":6662:6687   */\n      0x596f75206d7573742073656e6420736f6d657468696e67000000000000000000\n        /* \"#utility.yul\":6658:6659   */\n      0x00\n        /* \"#utility.yul\":6650:6656   */\n      dup3\n        /* \"#utility.yul\":6646:6660   */\n      add\n        /* \"#utility.yul\":6639:6688   */\n      mstore\n        /* \"#utility.yul\":6522:6695   */\n      pop\n      jump\t// out\n        /* \"#utility.yul\":6701:7067   */\n    tag_91:\n        /* \"#utility.yul\":6843:6846   */\n      0x00\n        /* \"#utility.yul\":6864:6931   */\n      tag_158\n        /* \"#utility.yul\":6928:6930   */\n      0x17\n        /* \"#utility.yul\":6923:6926   */\n      dup4\n        /* \"#utility.yul\":6864:6931   */\n      tag_82\n      jump\t// in\n    tag_158:\n        /* \"#utility.yul\":6857:6931   */\n      swap2\n      pop\n        /* \"#utility.yul\":6940:7033   */\n      tag_159\n        /* \"#utility.yul\":7029:7032   */\n      dup3\n        /* \"#utility.yul\":6940:7033   */\n      tag_90\n      jump\t// in\n    tag_159:\n        /* \"#utility.yul\":7058:7060   */\n      0x20\n        /* \"#utility.yul\":7053:7056   */\n      dup3\n        /* \"#utility.yul\":7049:7061   */\n      add\n        /* \"#utility.yul\":7042:7061   */\n      swap1\n      pop\n        /* \"#utility.yul\":6701:7067   */\n      swap2\n      swap1\n      pop\n      jump\t// out\n        /* \"#utility.yul\":7073:7492   */\n    tag_65:\n        /* \"#utility.yul\":7239:7243   */\n      0x00\n        /* \"#utility.yul\":7277:7279   */\n      0x20\n        /* \"#utility.yul\":7266:7275   */\n      dup3\n        /* \"#utility.yul\":7262:7280   */\n      add\n        /* \"#utility.yul\":7254:7280   */\n      swap1\n      pop\n        /* \"#utility.yul\":7326:7335   */\n      dup2\n        /* \"#utility.yul\":7320:7324   */\n      dup2\n        /* \"#utility.yul\":7316:7336   */\n      sub\n        /* \"#utility.yul\":7312:7313   */\n      0x00\n        /* \"#utility.yul\":7301:7310   */\n      dup4\n        /* \"#utility.yul\":7297:7314   */\n      add\n        /* \"#utility.yul\":7290:7337   */\n      mstore\n        /* \"#utility.yul\":7354:7485   */\n      tag_161\n        /* \"#utility.yul\":7480:7484   */\n      dup2\n        /* \"#utility.yul\":7354:7485   */\n      tag_91\n      jump\t// in\n    tag_161:\n        /* \"#utility.yul\":7346:7485   */\n      swap1\n      pop\n        /* \"#utility.yul\":7073:7492   */\n      swap2\n      swap1\n      pop\n      jump\t// out\n        /* \"#utility.yul\":7498:7689   */\n    tag_67:\n        /* \"#utility.yul\":7538:7541   */\n      0x00\n        /* \"#utility.yul\":7557:7577   */\n      tag_163\n        /* \"#utility.yul\":7575:7576   */\n      dup3\n        /* \"#utility.yul\":7557:7577   */\n      tag_68\n      jump\t// in\n    tag_163:\n        /* \"#utility.yul\":7552:7577   */\n      swap2\n      pop\n        /* \"#utility.yul\":7591:7611   */\n      tag_164\n        /* \"#utility.yul\":7609:7610   */\n      dup4\n        /* \"#utility.yul\":7591:7611   */\n      tag_68\n      jump\t// in\n    tag_164:\n        /* \"#utility.yul\":7586:7611   */\n      swap3\n      pop\n        /* \"#utility.yul\":7634:7635   */\n      dup3\n        /* \"#utility.yul\":7631:7632   */\n      dup3\n        /* \"#utility.yul\":7627:7636   */\n      add\n        /* \"#utility.yul\":7620:7636   */\n      swap1\n      pop\n        /* \"#utility.yul\":7655:7658   */\n      dup1\n        /* \"#utility.yul\":7652:7653   */\n      dup3\n        /* \"#utility.yul\":7649:7659   */\n      gt\n        /* \"#utility.yul\":7646:7682   */\n      iszero\n      tag_165\n      jumpi\n        /* \"#utility.yul\":7662:7680   */\n      tag_166\n      tag_87\n      jump\t// in\n    tag_166:\n        /* \"#utility.yul\":7646:7682   */\n    tag_165:\n        /* \"#utility.yul\":7498:7689   */\n      swap3\n      swap2\n      pop\n      pop\n      jump\t// out\n\n    auxdata: 0xa2646970667358221220c6c0430629f07e43c45381f987ae54bd44d9b6d24faf70f35a15b0e48d1f234f64736f6c634300081e0033\n}\n",
				"bytecode": {
					"linkReferences": {},
					"object": "6080604052348015600e575f5ffd5b50335f5f6101000a81548173ffffffffffffffffffffffffffffffffffffffff021916908373ffffffffffffffffffffffffffffffffffffffff1602179055505f5f60146101000a81548160ff021916908315150217905550610914806100745f395ff3fe60806040526004361061006f575f3560e01c8063b187bd261161004d578063b187bd26146100ef578063c4ae316814610119578063d0e30db01461012f578063e3d670d7146101395761006f565b806312065fe0146100735780632e1a7d4d1461009d5780638da5cb5b146100c5575b5f5ffd5b34801561007e575f5ffd5b50610087610175565b6040516100949190610523565b60405180910390f35b3480156100a8575f5ffd5b506100c360048036038101906100be919061056a565b6101b9565b005b3480156100d0575f5ffd5b506100d9610322565b6040516100e691906105d4565b60405180910390f35b3480156100fa575f5ffd5b50610103610346565b6040516101109190610607565b60405180910390f35b348015610124575f5ffd5b5061012d610358565b005b610137610410565b005b348015610144575f5ffd5b5061015f600480360381019061015a919061064a565b6104f6565b60405161016c9190610523565b60405180910390f35b5f60015f3373ffffffffffffffffffffffffffffffffffffffff1673ffffffffffffffffffffffffffffffffffffffff1681526020019081526020015f2054905090565b5f60149054906101000a900460ff1615610208576040517f08c379a00000000000000000000000000000000000000000000000000000000081526004016101ff906106f5565b60405180910390fd5b8060015f3373ffffffffffffffffffffffffffffffffffffffff1673ffffffffffffffffffffffffffffffffffffffff1681526020019081526020015f20541015610288576040517f08c379a000000000000000000000000000000000000000000000000000000000815260040161027f9061075d565b60405180910390fd5b8060015f3373ffffffffffffffffffffffffffffffffffffffff1673ffffffffffffffffffffffffffffffffffffffff1681526020019081526020015f205f8282546102d491906107a8565b925050819055503373ffffffffffffffffffffffffffffffffffffffff166108fc8290811502906040515f60405180830381858888f1935050505015801561031e573d5f5f3e3d5ffd5b5050565b5f5f9054906101000a900473ffffffffffffffffffffffffffffffffffffffff1681565b5f60149054906101000a900460ff1681565b5f5f9054906101000a900473ffffffffffffffffffffffffffffffffffffffff1673ffffffffffffffffffffffffffffffffffffffff163373ffffffffffffffffffffffffffffffffffffffff16146103e6576040517f08c379a00000000000000000000000000000000000000000000000000000000081526004016103dd90610825565b60405180910390fd5b5f60149054906101000a900460ff16155f60146101000a81548160ff021916908315150217905550565b5f60149054906101000a900460ff161561045f576040517f08c379a0000000000000000000000000000000000000000000000000000000008152600401610456906106f5565b60405180910390fd5b5f34116104a1576040517f08c379a00000000000000000000000000000000000000000000000000000000081526004016104989061088d565b60405180910390fd5b3460015f3373ffffffffffffffffffffffffffffffffffffffff1673ffffffffffffffffffffffffffffffffffffffff1681526020019081526020015f205f8282546104ed91906108ab565b92505081905550565b6001602052805f5260405f205f915090505481565b5f819050919050565b61051d8161050b565b82525050565b5f6020820190506105365f830184610514565b92915050565b5f5ffd5b6105498161050b565b8114610553575f5ffd5b50565b5f8135905061056481610540565b92915050565b5f6020828403121561057f5761057e61053c565b5b5f61058c84828501610556565b91505092915050565b5f73ffffffffffffffffffffffffffffffffffffffff82169050919050565b5f6105be82610595565b9050919050565b6105ce816105b4565b82525050565b5f6020820190506105e75f8301846105c5565b92915050565b5f8115159050919050565b610601816105ed565b82525050565b5f60208201905061061a5f8301846105f8565b92915050565b610629816105b4565b8114610633575f5ffd5b50565b5f8135905061064481610620565b92915050565b5f6020828403121561065f5761065e61053c565b5b5f61066c84828501610636565b91505092915050565b5f82825260208201905092915050565b7f5468652041544d2069732063757272656e746c79206f7574206f66206f7264655f8201527f7200000000000000000000000000000000000000000000000000000000000000602082015250565b5f6106df602183610675565b91506106ea82610685565b604082019050919050565b5f6020820190508181035f83015261070c816106d3565b9050919050565b7f496e73756666696369656e742062616c616e63652100000000000000000000005f82015250565b5f610747601583610675565b915061075282610713565b602082019050919050565b5f6020820190508181035f8301526107748161073b565b9050919050565b7f4e487b71000000000000000000000000000000000000000000000000000000005f52601160045260245ffd5b5f6107b28261050b565b91506107bd8361050b565b92508282039050818111156107d5576107d461077b565b5b92915050565b7f4e6f7420746865206f776e6572000000000000000000000000000000000000005f82015250565b5f61080f600d83610675565b915061081a826107db565b602082019050919050565b5f6020820190508181035f83015261083c81610803565b9050919050565b7f596f75206d7573742073656e6420736f6d657468696e670000000000000000005f82015250565b5f610877601783610675565b915061088282610843565b602082019050919050565b5f6020820190508181035f8301526108a48161086b565b9050919050565b5f6108b58261050b565b91506108c08361050b565b92508282019050808211156108d8576108d761077b565b5b9291505056fea2646970667358221220c6c0430629f07e43c45381f987ae54bd44d9b6d24faf70f35a15b0e48d1f234f64736f6c634300081e0033",
					"opcodes": "PUSH1 0x80 PUSH1 0x40 MSTORE CALLVALUE DUP1 ISZERO PUSH1 0xE JUMPI PUSH0 PUSH0 REVERT JUMPDEST POP CALLER PUSH0 PUSH0 PUSH2 0x100 EXP DUP2 SLOAD DUP2 PUSH20 0xFFFFFFFFFFFFFFFFFFFFFFFFFFFFFFFFFFFFFFFF MUL NOT AND SWAP1 DUP4 PUSH20 0xFFFFFFFFFFFFFFFFFFFFFFFFFFFFFFFFFFFFFFFF AND MUL OR SWAP1 SSTORE POP PUSH0 PUSH0 PUSH1 0x14 PUSH2 0x100 EXP DUP2 SLOAD DUP2 PUSH1 0xFF MUL NOT AND SWAP1 DUP4 ISZERO ISZERO MUL OR SWAP1 SSTORE POP PUSH2 0x914 DUP1 PUSH2 0x74 PUSH0 CODECOPY PUSH0 RETURN INVALID PUSH1 0x80 PUSH1 0x40 MSTORE PUSH1 0x4 CALLDATASIZE LT PUSH2 0x6F JUMPI PUSH0 CALLDATALOAD PUSH1 0xE0 SHR DUP1 PUSH4 0xB187BD26 GT PUSH2 0x4D JUMPI DUP1 PUSH4 0xB187BD26 EQ PUSH2 0xEF JUMPI DUP1 PUSH4 0xC4AE3168 EQ PUSH2 0x119 JUMPI DUP1 PUSH4 0xD0E30DB0 EQ PUSH2 0x12F JUMPI DUP1 PUSH4 0xE3D670D7 EQ PUSH2 0x139 JUMPI PUSH2 0x6F JUMP JUMPDEST DUP1 PUSH4 0x12065FE0 EQ PUSH2 0x73 JUMPI DUP1 PUSH4 0x2E1A7D4D EQ PUSH2 0x9D JUMPI DUP1 PUSH4 0x8DA5CB5B EQ PUSH2 0xC5 JUMPI JUMPDEST PUSH0 PUSH0 REVERT JUMPDEST CALLVALUE DUP1 ISZERO PUSH2 0x7E JUMPI PUSH0 PUSH0 REVERT JUMPDEST POP PUSH2 0x87 PUSH2 0x175 JUMP JUMPDEST PUSH1 0x40 MLOAD PUSH2 0x94 SWAP2 SWAP1 PUSH2 0x523 JUMP JUMPDEST PUSH1 0x40 MLOAD DUP1 SWAP2 SUB SWAP1 RETURN JUMPDEST CALLVALUE DUP1 ISZERO PUSH2 0xA8 JUMPI PUSH0 PUSH0 REVERT JUMPDEST POP PUSH2 0xC3 PUSH1 0x4 DUP1 CALLDATASIZE SUB DUP2 ADD SWAP1 PUSH2 0xBE SWAP2 SWAP1 PUSH2 0x56A JUMP JUMPDEST PUSH2 0x1B9 JUMP JUMPDEST STOP JUMPDEST CALLVALUE DUP1 ISZERO PUSH2 0xD0 JUMPI PUSH0 PUSH0 REVERT JUMPDEST POP PUSH2 0xD9 PUSH2 0x322 JUMP JUMPDEST PUSH1 0x40 MLOAD PUSH2 0xE6 SWAP2 SWAP1 PUSH2 0x5D4 JUMP JUMPDEST PUSH1 0x40 MLOAD DUP1 SWAP2 SUB SWAP1 RETURN JUMPDEST CALLVALUE DUP1 ISZERO PUSH2 0xFA JUMPI PUSH0 PUSH0 REVERT JUMPDEST POP PUSH2 0x103 PUSH2 0x346 JUMP JUMPDEST PUSH1 0x40 MLOAD PUSH2 0x110 SWAP2 SWAP1 PUSH2 0x607 JUMP JUMPDEST PUSH1 0x40 MLOAD DUP1 SWAP2 SUB SWAP1 RETURN JUMPDEST CALLVALUE DUP1 ISZERO PUSH2 0x124 JUMPI PUSH0 PUSH0 REVERT JUMPDEST POP PUSH2 0x12D PUSH2 0x358 JUMP JUMPDEST STOP JUMPDEST PUSH2 0x137 PUSH2 0x410 JUMP JUMPDEST STOP JUMPDEST CALLVALUE DUP1 ISZERO PUSH2 0x144 JUMPI PUSH0 PUSH0 REVERT JUMPDEST POP PUSH2 0x15F PUSH1 0x4 DUP1 CALLDATASIZE SUB DUP2 ADD SWAP1 PUSH2 0x15A SWAP2 SWAP1 PUSH2 0x64A JUMP JUMPDEST PUSH2 0x4F6 JUMP JUMPDEST PUSH1 0x40 MLOAD PUSH2 0x16C SWAP2 SWAP1 PUSH2 0x523 JUMP JUMPDEST PUSH1 0x40 MLOAD DUP1 SWAP2 SUB SWAP1 RETURN JUMPDEST PUSH0 PUSH1 0x1 PUSH0 CALLER PUSH20 0xFFFFFFFFFFFFFFFFFFFFFFFFFFFFFFFFFFFFFFFF AND PUSH20 0xFFFFFFFFFFFFFFFFFFFFFFFFFFFFFFFFFFFFFFFF AND DUP2 MSTORE PUSH1 0x20 ADD SWAP1 DUP2 MSTORE PUSH1 0x20 ADD PUSH0 KECCAK256 SLOAD SWAP1 POP SWAP1 JUMP JUMPDEST PUSH0 PUSH1 0x14 SWAP1 SLOAD SWAP1 PUSH2 0x100 EXP SWAP1 DIV PUSH1 0xFF AND ISZERO PUSH2 0x208 JUMPI PUSH1 0x40 MLOAD PUSH32 0x8C379A000000000000000000000000000000000000000000000000000000000 DUP2 MSTORE PUSH1 0x4 ADD PUSH2 0x1FF SWAP1 PUSH2 0x6F5 JUMP JUMPDEST PUSH1 0x40 MLOAD DUP1 SWAP2 SUB SWAP1 REVERT JUMPDEST DUP1 PUSH1 0x1 PUSH0 CALLER PUSH20 0xFFFFFFFFFFFFFFFFFFFFFFFFFFFFFFFFFFFFFFFF AND PUSH20 0xFFFFFFFFFFFFFFFFFFFFFFFFFFFFFFFFFFFFFFFF AND DUP2 MSTORE PUSH1 0x20 ADD SWAP1 DUP2 MSTORE PUSH1 0x20 ADD PUSH0 KECCAK256 SLOAD LT ISZERO PUSH2 0x288 JUMPI PUSH1 0x40 MLOAD PUSH32 0x8C379A000000000000000000000000000000000000000000000000000000000 DUP2 MSTORE PUSH1 0x4 ADD PUSH2 0x27F SWAP1 PUSH2 0x75D JUMP JUMPDEST PUSH1 0x40 MLOAD DUP1 SWAP2 SUB SWAP1 REVERT JUMPDEST DUP1 PUSH1 0x1 PUSH0 CALLER PUSH20 0xFFFFFFFFFFFFFFFFFFFFFFFFFFFFFFFFFFFFFFFF AND PUSH20 0xFFFFFFFFFFFFFFFFFFFFFFFFFFFFFFFFFFFFFFFF AND DUP2 MSTORE PUSH1 0x20 ADD SWAP1 DUP2 MSTORE PUSH1 0x20 ADD PUSH0 KECCAK256 PUSH0 DUP3 DUP3 SLOAD PUSH2 0x2D4 SWAP2 SWAP1 PUSH2 0x7A8 JUMP JUMPDEST SWAP3 POP POP DUP2 SWAP1 SSTORE POP CALLER PUSH20 0xFFFFFFFFFFFFFFFFFFFFFFFFFFFFFFFFFFFFFFFF AND PUSH2 0x8FC DUP3 SWAP1 DUP2 ISZERO MUL SWAP1 PUSH1 0x40 MLOAD PUSH0 PUSH1 0x40 MLOAD DUP1 DUP4 SUB DUP2 DUP6 DUP9 DUP9 CALL SWAP4 POP POP POP POP ISZERO DUP1 ISZERO PUSH2 0x31E JUMPI RETURNDATASIZE PUSH0 PUSH0 RETURNDATACOPY RETURNDATASIZE PUSH0 REVERT JUMPDEST POP POP JUMP JUMPDEST PUSH0 PUSH0 SWAP1 SLOAD SWAP1 PUSH2 0x100 EXP SWAP1 DIV PUSH20 0xFFFFFFFFFFFFFFFFFFFFFFFFFFFFFFFFFFFFFFFF AND DUP2 JUMP JUMPDEST PUSH0 PUSH1 0x14 SWAP1 SLOAD SWAP1 PUSH2 0x100 EXP SWAP1 DIV PUSH1 0xFF AND DUP2 JUMP JUMPDEST PUSH0 PUSH0 SWAP1 SLOAD SWAP1 PUSH2 0x100 EXP SWAP1 DIV PUSH20 0xFFFFFFFFFFFFFFFFFFFFFFFFFFFFFFFFFFFFFFFF AND PUSH20 0xFFFFFFFFFFFFFFFFFFFFFFFFFFFFFFFFFFFFFFFF AND CALLER PUSH20 0xFFFFFFFFFFFFFFFFFFFFFFFFFFFFFFFFFFFFFFFF AND EQ PUSH2 0x3E6 JUMPI PUSH1 0x40 MLOAD PUSH32 0x8C379A000000000000000000000000000000000000000000000000000000000 DUP2 MSTORE PUSH1 0x4 ADD PUSH2 0x3DD SWAP1 PUSH2 0x825 JUMP JUMPDEST PUSH1 0x40 MLOAD DUP1 SWAP2 SUB SWAP1 REVERT JUMPDEST PUSH0 PUSH1 0x14 SWAP1 SLOAD SWAP1 PUSH2 0x100 EXP SWAP1 DIV PUSH1 0xFF AND ISZERO PUSH0 PUSH1 0x14 PUSH2 0x100 EXP DUP2 SLOAD DUP2 PUSH1 0xFF MUL NOT AND SWAP1 DUP4 ISZERO ISZERO MUL OR SWAP1 SSTORE POP JUMP JUMPDEST PUSH0 PUSH1 0x14 SWAP1 SLOAD SWAP1 PUSH2 0x100 EXP SWAP1 DIV PUSH1 0xFF AND ISZERO PUSH2 0x45F JUMPI PUSH1 0x40 MLOAD PUSH32 0x8C379A000000000000000000000000000000000000000000000000000000000 DUP2 MSTORE PUSH1 0x4 ADD PUSH2 0x456 SWAP1 PUSH2 0x6F5 JUMP JUMPDEST PUSH1 0x40 MLOAD DUP1 SWAP2 SUB SWAP1 REVERT JUMPDEST PUSH0 CALLVALUE GT PUSH2 0x4A1 JUMPI PUSH1 0x40 MLOAD PUSH32 0x8C379A000000000000000000000000000000000000000000000000000000000 DUP2 MSTORE PUSH1 0x4 ADD PUSH2 0x498 SWAP1 PUSH2 0x88D JUMP JUMPDEST PUSH1 0x40 MLOAD DUP1 SWAP2 SUB SWAP1 REVERT JUMPDEST CALLVALUE PUSH1 0x1 PUSH0 CALLER PUSH20 0xFFFFFFFFFFFFFFFFFFFFFFFFFFFFFFFFFFFFFFFF AND PUSH20 0xFFFFFFFFFFFFFFFFFFFFFFFFFFFFFFFFFFFFFFFF AND DUP2 MSTORE PUSH1 0x20 ADD SWAP1 DUP2 MSTORE PUSH1 0x20 ADD PUSH0 KECCAK256 PUSH0 DUP3 DUP3 SLOAD PUSH2 0x4ED SWAP2 SWAP1 PUSH2 0x8AB JUMP JUMPDEST SWAP3 POP POP DUP2 SWAP1 SSTORE POP JUMP JUMPDEST PUSH1 0x1 PUSH1 0x20 MSTORE DUP1 PUSH0 MSTORE PUSH1 0x40 PUSH0 KECCAK256 PUSH0 SWAP2 POP SWAP1 POP SLOAD DUP2 JUMP JUMPDEST PUSH0 DUP2 SWAP1 POP SWAP2 SWAP1 POP JUMP JUMPDEST PUSH2 0x51D DUP2 PUSH2 0x50B JUMP JUMPDEST DUP3 MSTORE POP POP JUMP JUMPDEST PUSH0 PUSH1 0x20 DUP3 ADD SWAP1 POP PUSH2 0x536 PUSH0 DUP4 ADD DUP5 PUSH2 0x514 JUMP JUMPDEST SWAP3 SWAP2 POP POP JUMP JUMPDEST PUSH0 PUSH0 REVERT JUMPDEST PUSH2 0x549 DUP2 PUSH2 0x50B JUMP JUMPDEST DUP2 EQ PUSH2 0x553 JUMPI PUSH0 PUSH0 REVERT JUMPDEST POP JUMP JUMPDEST PUSH0 DUP2 CALLDATALOAD SWAP1 POP PUSH2 0x564 DUP2 PUSH2 0x540 JUMP JUMPDEST SWAP3 SWAP2 POP POP JUMP JUMPDEST PUSH0 PUSH1 0x20 DUP3 DUP5 SUB SLT ISZERO PUSH2 0x57F JUMPI PUSH2 0x57E PUSH2 0x53C JUMP JUMPDEST JUMPDEST PUSH0 PUSH2 0x58C DUP5 DUP3 DUP6 ADD PUSH2 0x556 JUMP JUMPDEST SWAP2 POP POP SWAP3 SWAP2 POP POP JUMP JUMPDEST PUSH0 PUSH20 0xFFFFFFFFFFFFFFFFFFFFFFFFFFFFFFFFFFFFFFFF DUP3 AND SWAP1 POP SWAP2 SWAP1 POP JUMP JUMPDEST PUSH0 PUSH2 0x5BE DUP3 PUSH2 0x595 JUMP JUMPDEST SWAP1 POP SWAP2 SWAP1 POP JUMP JUMPDEST PUSH2 0x5CE DUP2 PUSH2 0x5B4 JUMP JUMPDEST DUP3 MSTORE POP POP JUMP JUMPDEST PUSH0 PUSH1 0x20 DUP3 ADD SWAP1 POP PUSH2 0x5E7 PUSH0 DUP4 ADD DUP5 PUSH2 0x5C5 JUMP JUMPDEST SWAP3 SWAP2 POP POP JUMP JUMPDEST PUSH0 DUP2 ISZERO ISZERO SWAP1 POP SWAP2 SWAP1 POP JUMP JUMPDEST PUSH2 0x601 DUP2 PUSH2 0x5ED JUMP JUMPDEST DUP3 MSTORE POP POP JUMP JUMPDEST PUSH0 PUSH1 0x20 DUP3 ADD SWAP1 POP PUSH2 0x61A PUSH0 DUP4 ADD DUP5 PUSH2 0x5F8 JUMP JUMPDEST SWAP3 SWAP2 POP POP JUMP JUMPDEST PUSH2 0x629 DUP2 PUSH2 0x5B4 JUMP JUMPDEST DUP2 EQ PUSH2 0x633 JUMPI PUSH0 PUSH0 REVERT JUMPDEST POP JUMP JUMPDEST PUSH0 DUP2 CALLDATALOAD SWAP1 POP PUSH2 0x644 DUP2 PUSH2 0x620 JUMP JUMPDEST SWAP3 SWAP2 POP POP JUMP JUMPDEST PUSH0 PUSH1 0x20 DUP3 DUP5 SUB SLT ISZERO PUSH2 0x65F JUMPI PUSH2 0x65E PUSH2 0x53C JUMP JUMPDEST JUMPDEST PUSH0 PUSH2 0x66C DUP5 DUP3 DUP6 ADD PUSH2 0x636 JUMP JUMPDEST SWAP2 POP POP SWAP3 SWAP2 POP POP JUMP JUMPDEST PUSH0 DUP3 DUP3 MSTORE PUSH1 0x20 DUP3 ADD SWAP1 POP SWAP3 SWAP2 POP POP JUMP JUMPDEST PUSH32 0x5468652041544D2069732063757272656E746C79206F7574206F66206F726465 PUSH0 DUP3 ADD MSTORE PUSH32 0x7200000000000000000000000000000000000000000000000000000000000000 PUSH1 0x20 DUP3 ADD MSTORE POP JUMP JUMPDEST PUSH0 PUSH2 0x6DF PUSH1 0x21 DUP4 PUSH2 0x675 JUMP JUMPDEST SWAP2 POP PUSH2 0x6EA DUP3 PUSH2 0x685 JUMP JUMPDEST PUSH1 0x40 DUP3 ADD SWAP1 POP SWAP2 SWAP1 POP JUMP JUMPDEST PUSH0 PUSH1 0x20 DUP3 ADD SWAP1 POP DUP2 DUP2 SUB PUSH0 DUP4 ADD MSTORE PUSH2 0x70C DUP2 PUSH2 0x6D3 JUMP JUMPDEST SWAP1 POP SWAP2 SWAP1 POP JUMP JUMPDEST PUSH32 0x496E73756666696369656E742062616C616E6365210000000000000000000000 PUSH0 DUP3 ADD MSTORE POP JUMP JUMPDEST PUSH0 PUSH2 0x747 PUSH1 0x15 DUP4 PUSH2 0x675 JUMP JUMPDEST SWAP2 POP PUSH2 0x752 DUP3 PUSH2 0x713 JUMP JUMPDEST PUSH1 0x20 DUP3 ADD SWAP1 POP SWAP2 SWAP1 POP JUMP JUMPDEST PUSH0 PUSH1 0x20 DUP3 ADD SWAP1 POP DUP2 DUP2 SUB PUSH0 DUP4 ADD MSTORE PUSH2 0x774 DUP2 PUSH2 0x73B JUMP JUMPDEST SWAP1 POP SWAP2 SWAP1 POP JUMP JUMPDEST PUSH32 0x4E487B7100000000000000000000000000000000000000000000000000000000 PUSH0 MSTORE PUSH1 0x11 PUSH1 0x4 MSTORE PUSH1 0x24 PUSH0 REVERT JUMPDEST PUSH0 PUSH2 0x7B2 DUP3 PUSH2 0x50B JUMP JUMPDEST SWAP2 POP PUSH2 0x7BD DUP4 PUSH2 0x50B JUMP JUMPDEST SWAP3 POP DUP3 DUP3 SUB SWAP1 POP DUP2 DUP2 GT ISZERO PUSH2 0x7D5 JUMPI PUSH2 0x7D4 PUSH2 0x77B JUMP JUMPDEST JUMPDEST SWAP3 SWAP2 POP POP JUMP JUMPDEST PUSH32 0x4E6F7420746865206F776E657200000000000000000000000000000000000000 PUSH0 DUP3 ADD MSTORE POP JUMP JUMPDEST PUSH0 PUSH2 0x80F PUSH1 0xD DUP4 PUSH2 0x675 JUMP JUMPDEST SWAP2 POP PUSH2 0x81A DUP3 PUSH2 0x7DB JUMP JUMPDEST PUSH1 0x20 DUP3 ADD SWAP1 POP SWAP2 SWAP1 POP JUMP JUMPDEST PUSH0 PUSH1 0x20 DUP3 ADD SWAP1 POP DUP2 DUP2 SUB PUSH0 DUP4 ADD MSTORE PUSH2 0x83C DUP2 PUSH2 0x803 JUMP JUMPDEST SWAP1 POP SWAP2 SWAP1 POP JUMP JUMPDEST PUSH32 0x596F75206D7573742073656E6420736F6D657468696E67000000000000000000 PUSH0 DUP3 ADD MSTORE POP JUMP JUMPDEST PUSH0 PUSH2 0x877 PUSH1 0x17 DUP4 PUSH2 0x675 JUMP JUMPDEST SWAP2 POP PUSH2 0x882 DUP3 PUSH2 0x843 JUMP JUMPDEST PUSH1 0x20 DUP3 ADD SWAP1 POP SWAP2 SWAP1 POP JUMP JUMPDEST PUSH0 PUSH1 0x20 DUP3 ADD SWAP1 POP DUP2 DUP2 SUB PUSH0 DUP4 ADD MSTORE PUSH2 0x8A4 DUP2 PUSH2 0x86B JUMP JUMPDEST SWAP1 POP SWAP2 SWAP1 POP JUMP JUMPDEST PUSH0 PUSH2 0x8B5 DUP3 PUSH2 0x50B JUMP JUMPDEST SWAP2 POP PUSH2 0x8C0 DUP4 PUSH2 0x50B JUMP JUMPDEST SWAP3 POP DUP3 DUP3 ADD SWAP1 POP DUP1 DUP3 GT ISZERO PUSH2 0x8D8 JUMPI PUSH2 0x8D7 PUSH2 0x77B JUMP JUMPDEST JUMPDEST SWAP3 SWAP2 POP POP JUMP INVALID LOG2 PUSH5 0x6970667358 0x22 SLT KECCAK256 0xC6 0xC0 NUMBER MOD 0x29 CREATE PUSH31 0x43C45381F987AE54BD44D9B6D24FAF70F35A15B0E48D1F234F64736F6C6343 STOP ADDMOD 0x1E STOP CALLER "
				},
				"gasEstimates": {
					"creation": {
						"codeDepositCost": "464800",
						"executionCost": "49076",
						"totalCost": "513876"
					},
					"external": {
						"balance(address)": "2868",
						"deposit()": "infinite",
						"getBalance()": "2520",
						"isPaused()": "2516",
						"owner()": "2552",
						"togglePause()": "28837",
						"withdraw(uint256)": "infinite"
					}
				},
				"methodIdentifiers": {
					"balance(address)": "e3d670d7",
					"deposit()": "d0e30db0",
					"getBalance()": "12065fe0",
					"isPaused()": "b187bd26",
					"owner()": "8da5cb5b",
					"togglePause()": "c4ae3168",
					"withdraw(uint256)": "2e1a7d4d"
				}
			},
			"storageLayout": {
				"storage": [
					{
						"astId": 3,
						"contract": "Week4_Task.sol:ATM",
						"label": "owner",
						"offset": 0,
						"slot": "0",
						"type": "t_address"
					},
					{
						"astId": 5,
						"contract": "Week4_Task.sol:ATM",
						"label": "isPaused",
						"offset": 20,
						"slot": "0",
						"type": "t_bool"
					},
					{
						"astId": 9,
						"contract": "Week4_Task.sol:ATM",
						"label": "balance",
						"offset": 0,
						"slot": "1",
						"type": "t_mapping(t_address,t_uint256)"
					}
				],
				"types": {
					"t_address": {
						"encoding": "inplace",
						"label": "address",
						"numberOfBytes": "20"
					},
					"t_bool": {
						"encoding": "inplace",
						"label": "bool",
						"numberOfBytes": "1"
					},
					"t_mapping(t_address,t_uint256)": {
						"encoding": "mapping",
						"key": "t_address",
						"label": "mapping(address => uint256)",
						"numberOfBytes": "32",
						"value": "t_uint256"
					},
					"t_uint256": {
						"encoding": "inplace",
						"label": "uint256",
						"numberOfBytes": "32"
					}
				}
			},
			"userdoc": {
				"kind": "user",
				"methods": {},
				"version": 1
			}
		}
	}
}