{
	"Week3_part2.sol": {
		"tutorial3": {
			"abi": [
				{
					"inputs": [],
					"name": "getm",
					"outputs": [
						{
							"internalType": "string",
							"name": "_name",
							"type": "string"
						},
						{
							"internalType": "string",
							"name": "_id",
							"type": "string"
						},
						{
							"internalType": "bool",
							"name": "_isPresent",
							"type": "bool"
						},
						{
							"internalType": "uint256",
							"name": "_age",
							"type": "uint256"
						}
					],
					"stateMutability": "view",
					"type": "function"
				},
				{
					"inputs": [],
					"name": "m",
					"outputs": [
						{
							"internalType": "string",
							"name": "name",
							"type": "string"
						},
						{
							"internalType": "string",
							"name": "id",
							"type": "string"
						},
						{
							"internalType": "bool",
							"name": "isPresent",
							"type": "bool"
						},
						{
							"internalType": "uint256",
							"name": "age",
							"type": "uint256"
						}
					],
					"stateMutability": "view",
					"type": "function"
				},
				{
					"inputs": [
						{
							"internalType": "string",
							"name": "_name",
							"type": "string"
						},
						{
							"internalType": "string",
							"name": "_id",
							"type": "string"
						},
						{
							"internalType": "bool",
							"name": "_isPresent",
							"type": "bool"
						},
						{
							"internalType": "uint256",
							"name": "_age",
							"type": "uint256"
						}
					],
					"name": "setm",
					"outputs": [],
					"stateMutability": "nonpayable",
					"type": "function"
				}
			],
			"devdoc": {
				"kind": "dev",
				"methods": {},
				"version": 1
			},
			"evm": {
				"assembly": "    /* \"Week3_part2.sol\":60:513  contract tutorial3{... */\n  mstore(0x40, 0x80)\n  callvalue\n  dup1\n  iszero\n  tag_1\n  jumpi\n  revert(0x00, 0x00)\ntag_1:\n  pop\n  dataSize(sub_0)\n  dup1\n  dataOffset(sub_0)\n  0x00\n  codecopy\n  0x00\n  return\nstop\n\nsub_0: assembly {\n        /* \"Week3_part2.sol\":60:513  contract tutorial3{... */\n      mstore(0x40, 0x80)\n      callvalue\n      dup1\n      iszero\n      tag_1\n      jumpi\n      revert(0x00, 0x00)\n    tag_1:\n      pop\n      jumpi(tag_2, lt(calldatasize, 0x04))\n      shr(0xe0, calldataload(0x00))\n      dup1\n      0x5a2ee019\n      eq\n      tag_3\n      jumpi\n      dup1\n      0x785d06f5\n      eq\n      tag_4\n      jumpi\n      dup1\n      0xec5fa568\n      eq\n      tag_5\n      jumpi\n    tag_2:\n      revert(0x00, 0x00)\n        /* \"Week3_part2.sol\":197:212  Mentee public m */\n    tag_3:\n      tag_6\n      tag_7\n      jump\t// in\n    tag_6:\n      mload(0x40)\n      tag_8\n      swap5\n      swap4\n      swap3\n      swap2\n      swap1\n      tag_9\n      jump\t// in\n    tag_8:\n      mload(0x40)\n      dup1\n      swap2\n      sub\n      swap1\n      return\n        /* \"Week3_part2.sol\":357:510  function getm()public view returns(string memory _name, string memory _id, bool _isPresent,uint _age) {... */\n    tag_4:\n      tag_10\n      tag_11\n      jump\t// in\n    tag_10:\n      mload(0x40)\n      tag_12\n      swap5\n      swap4\n      swap3\n      swap2\n      swap1\n      tag_9\n      jump\t// in\n    tag_12:\n      mload(0x40)\n      dup1\n      swap2\n      sub\n      swap1\n      return\n        /* \"Week3_part2.sol\":217:353  function setm(string memory _name, string memory _id, bool _isPresent, uint _age)public{... */\n    tag_5:\n      tag_13\n      0x04\n      dup1\n      calldatasize\n      sub\n      dup2\n      add\n      swap1\n      tag_14\n      swap2\n      swap1\n      tag_15\n      jump\t// in\n    tag_14:\n      tag_16\n      jump\t// in\n    tag_13:\n      stop\n        /* \"Week3_part2.sol\":197:212  Mentee public m */\n    tag_7:\n      0x00\n      dup1\n      0x00\n      add\n      dup1\n      sload\n      tag_17\n      swap1\n      tag_18\n      jump\t// in\n    tag_17:\n      dup1\n      0x1f\n      add\n      0x20\n      dup1\n      swap2\n      div\n      mul\n      0x20\n      add\n      mload(0x40)\n      swap1\n      dup2\n      add\n      0x40\n      mstore\n      dup1\n      swap3\n      swap2\n      swap1\n      dup2\n      dup2\n      mstore\n      0x20\n      add\n      dup3\n      dup1\n      sload\n      tag_19\n      swap1\n      tag_18\n      jump\t// in\n    tag_19:\n      dup1\n      iszero\n      tag_20\n      jumpi\n      dup1\n      0x1f\n      lt\n      tag_21\n      jumpi\n      0x0100\n      dup1\n      dup4\n      sload\n      div\n      mul\n      dup4\n      mstore\n      swap2\n      0x20\n      add\n      swap2\n      jump(tag_20)\n    tag_21:\n      dup3\n      add\n      swap2\n      swap1\n      0x00\n      mstore\n      keccak256(0x00, 0x20)\n      swap1\n    tag_22:\n      dup2\n      sload\n      dup2\n      mstore\n      swap1\n      0x01\n      add\n      swap1\n      0x20\n      add\n      dup1\n      dup4\n      gt\n      tag_22\n      jumpi\n      dup3\n      swap1\n      sub\n      0x1f\n      and\n      dup3\n      add\n      swap2\n    tag_20:\n      pop\n      pop\n      pop\n      pop\n      pop\n      swap1\n      dup1\n      0x01\n      add\n      dup1\n      sload\n      tag_23\n      swap1\n      tag_18\n      jump\t// in\n    tag_23:\n      dup1\n      0x1f\n      add\n      0x20\n      dup1\n      swap2\n      div\n      mul\n      0x20\n      add\n      mload(0x40)\n      swap1\n      dup2\n      add\n      0x40\n      mstore\n      dup1\n      swap3\n      swap2\n      swap1\n      dup2\n      dup2\n      mstore\n      0x20\n      add\n      dup3\n      dup1\n      sload\n      tag_24\n      swap1\n      tag_18\n      jump\t// in\n    tag_24:\n      dup1\n      iszero\n      tag_25\n      jumpi\n      dup1\n      0x1f\n      lt\n      tag_26\n      jumpi\n      0x0100\n      dup1\n      dup4\n      sload\n      div\n      mul\n      dup4\n      mstore\n      swap2\n      0x20\n      add\n      swap2\n      jump(tag_25)\n    tag_26:\n      dup3\n      add\n      swap2\n      swap1\n      0x00\n      mstore\n      keccak256(0x00, 0x20)\n      swap1\n    tag_27:\n      dup2\n      sload\n      dup2\n      mstore\n      swap1\n      0x01\n      add\n      swap1\n      0x20\n      add\n      dup1\n      dup4\n      gt\n      tag_27\n      jumpi\n      dup3\n      swap1\n      sub\n      0x1f\n      and\n      dup3\n      add\n      swap2\n    tag_25:\n      pop\n      pop\n      pop\n      pop\n      pop\n      swap1\n      dup1\n      0x02\n      add\n      0x00\n      swap1\n      sload\n      swap1\n      0x0100\n      exp\n      swap1\n      div\n      0xff\n      and\n      swap1\n      dup1\n      0x03\n      add\n      sload\n      swap1\n      pop\n      dup5\n      jump\t// out\n        /* \"Week3_part2.sol\":357:510  function getm()public view returns(string memory _name, string memory _id, bool _isPresent,uint _age) {... */\n    tag_11:\n        /* \"Week3_part2.sol\":392:411  string memory _name */\n      0x60\n        /* \"Week3_part2.sol\":413:430  string memory _id */\n      dup1\n        /* \"Week3_part2.sol\":432:447  bool _isPresent */\n      0x00\n        /* \"Week3_part2.sol\":448:457  uint _age */\n      0x00\n        /* \"Week3_part2.sol\":473:474  m */\n      0x00\n        /* \"Week3_part2.sol\":473:479  m.name */\n      0x00\n      add\n        /* \"Week3_part2.sol\":481:482  m */\n      0x00\n        /* \"Week3_part2.sol\":481:485  m.id */\n      0x01\n      add\n        /* \"Week3_part2.sol\":487:488  m */\n      0x00\n        /* \"Week3_part2.sol\":487:498  m.isPresent */\n      0x02\n      add\n      0x00\n      swap1\n      sload\n      swap1\n      0x0100\n      exp\n      swap1\n      div\n      0xff\n      and\n        /* \"Week3_part2.sol\":500:501  m */\n      0x00\n        /* \"Week3_part2.sol\":500:505  m.age */\n      0x03\n      add\n      sload\n        /* \"Week3_part2.sol\":465:506  return (m.name, m.id, m.isPresent, m.age) */\n      dup4\n      dup1\n      sload\n      tag_29\n      swap1\n      tag_18\n      jump\t// in\n    tag_29:\n      dup1\n      0x1f\n      add\n      0x20\n      dup1\n      swap2\n      div\n      mul\n      0x20\n      add\n      mload(0x40)\n      swap1\n      dup2\n      add\n      0x40\n      mstore\n      dup1\n      swap3\n      swap2\n      swap1\n      dup2\n      dup2\n      mstore\n      0x20\n      add\n      dup3\n      dup1\n      sload\n      tag_30\n      swap1\n      tag_18\n      jump\t// in\n    tag_30:\n      dup1\n      iszero\n      tag_31\n      jumpi\n      dup1\n      0x1f\n      lt\n      tag_32\n      jumpi\n      0x0100\n      dup1\n      dup4\n      sload\n      div\n      mul\n      dup4\n      mstore\n      swap2\n      0x20\n      add\n      swap2\n      jump(tag_31)\n    tag_32:\n      dup3\n      add\n      swap2\n      swap1\n      0x00\n      mstore\n      keccak256(0x00, 0x20)\n      swap1\n    tag_33:\n      dup2\n      sload\n      dup2\n      mstore\n      swap1\n      0x01\n      add\n      swap1\n      0x20\n      add\n      dup1\n      dup4\n      gt\n      tag_33\n      jumpi\n      dup3\n      swap1\n      sub\n      0x1f\n      and\n      dup3\n      add\n      swap2\n    tag_31:\n      pop\n      pop\n      pop\n      pop\n      pop\n      swap4\n      pop\n      dup3\n      dup1\n      sload\n      tag_34\n      swap1\n      tag_18\n      jump\t// in\n    tag_34:\n      dup1\n      0x1f\n      add\n      0x20\n      dup1\n      swap2\n      div\n      mul\n      0x20\n      add\n      mload(0x40)\n      swap1\n      dup2\n      add\n      0x40\n      mstore\n      dup1\n      swap3\n      swap2\n      swap1\n      dup2\n      dup2\n      mstore\n      0x20\n      add\n      dup3\n      dup1\n      sload\n      tag_35\n      swap1\n      tag_18\n      jump\t// in\n    tag_35:\n      dup1\n      iszero\n      tag_36\n      jumpi\n      dup1\n      0x1f\n      lt\n      tag_37\n      jumpi\n      0x0100\n      dup1\n      dup4\n      sload\n      div\n      mul\n      dup4\n      mstore\n      swap2\n      0x20\n      add\n      swap2\n      jump(tag_36)\n    tag_37:\n      dup3\n      add\n      swap2\n      swap1\n      0x00\n      mstore\n      keccak256(0x00, 0x20)\n      swap1\n    tag_38:\n      dup2\n      sload\n      dup2\n      mstore\n      swap1\n      0x01\n      add\n      swap1\n      0x20\n      add\n      dup1\n      dup4\n      gt\n      tag_38\n      jumpi\n      dup3\n      swap1\n      sub\n      0x1f\n      and\n      dup3\n      add\n      swap2\n    tag_36:\n      pop\n      pop\n      pop\n      pop\n      pop\n      swap3\n      pop\n      swap4\n      pop\n      swap4\n      pop\n      swap4\n      pop\n      swap4\n      pop\n        /* \"Week3_part2.sol\":357:510  function getm()public view returns(string memory _name, string memory _id, bool _isPresent,uint _age) {... */\n      swap1\n      swap2\n      swap3\n      swap4\n      jump\t// out\n        /* \"Week3_part2.sol\":217:353  function setm(string memory _name, string memory _id, bool _isPresent, uint _age)public{... */\n    tag_16:\n        /* \"Week3_part2.sol\":315:348  Mentee(_name,_id,_isPresent,_age) */\n      mload(0x40)\n      dup1\n      0x80\n      add\n      0x40\n      mstore\n      dup1\n        /* \"Week3_part2.sol\":322:327  _name */\n      dup6\n        /* \"Week3_part2.sol\":315:348  Mentee(_name,_id,_isPresent,_age) */\n      dup2\n      mstore\n      0x20\n      add\n        /* \"Week3_part2.sol\":328:331  _id */\n      dup5\n        /* \"Week3_part2.sol\":315:348  Mentee(_name,_id,_isPresent,_age) */\n      dup2\n      mstore\n      0x20\n      add\n        /* \"Week3_part2.sol\":332:342  _isPresent */\n      dup4\n        /* \"Week3_part2.sol\":315:348  Mentee(_name,_id,_isPresent,_age) */\n      iszero\n      iszero\n      dup2\n      mstore\n      0x20\n      add\n        /* \"Week3_part2.sol\":343:347  _age */\n      dup3\n        /* \"Week3_part2.sol\":315:348  Mentee(_name,_id,_isPresent,_age) */\n      dup2\n      mstore\n      pop\n        /* \"Week3_part2.sol\":311:312  m */\n      0x00\n        /* \"Week3_part2.sol\":311:348  m = Mentee(_name,_id,_isPresent,_age) */\n      0x00\n      dup3\n      add\n      mload\n      dup2\n      0x00\n      add\n      swap1\n      dup2\n      tag_40\n      swap2\n      swap1\n      tag_41\n      jump\t// in\n    tag_40:\n      pop\n      0x20\n      dup3\n      add\n      mload\n      dup2\n      0x01\n      add\n      swap1\n      dup2\n      tag_42\n      swap2\n      swap1\n      tag_41\n      jump\t// in\n    tag_42:\n      pop\n      0x40\n      dup3\n      add\n      mload\n      dup2\n      0x02\n      add\n      exp(0x0100, 0x00)\n      dup2\n      sload\n      dup2\n      0xff\n      mul\n      not\n      and\n      swap1\n      dup4\n      iszero\n      iszero\n      mul\n      or\n      swap1\n      sstore\n      pop\n      0x60\n      dup3\n      add\n      mload\n      dup2\n      0x03\n      add\n      sstore\n      swap1\n      pop\n      pop\n        /* \"Week3_part2.sol\":217:353  function setm(string memory _name, string memory _id, bool _isPresent, uint _age)public{... */\n      pop\n      pop\n      pop\n      pop\n      jump\t// out\n        /* \"#utility.yul\":7:106   */\n    tag_43:\n        /* \"#utility.yul\":59:65   */\n      0x00\n        /* \"#utility.yul\":93:98   */\n      dup2\n        /* \"#utility.yul\":87:99   */\n      mload\n        /* \"#utility.yul\":77:99   */\n      swap1\n      pop\n        /* \"#utility.yul\":7:106   */\n      swap2\n      swap1\n      pop\n      jump\t// out\n        /* \"#utility.yul\":112:281   */\n    tag_44:\n        /* \"#utility.yul\":196:207   */\n      0x00\n        /* \"#utility.yul\":230:236   */\n      dup3\n        /* \"#utility.yul\":225:228   */\n      dup3\n        /* \"#utility.yul\":218:237   */\n      mstore\n        /* \"#utility.yul\":270:274   */\n      0x20\n        /* \"#utility.yul\":265:268   */\n      dup3\n        /* \"#utility.yul\":261:275   */\n      add\n        /* \"#utility.yul\":246:275   */\n      swap1\n      pop\n        /* \"#utility.yul\":112:281   */\n      swap3\n      swap2\n      pop\n      pop\n      jump\t// out\n        /* \"#utility.yul\":287:426   */\n    tag_45:\n        /* \"#utility.yul\":376:382   */\n      dup3\n        /* \"#utility.yul\":371:374   */\n      dup2\n        /* \"#utility.yul\":366:369   */\n      dup4\n        /* \"#utility.yul\":360:383   */\n      mcopy\n        /* \"#utility.yul\":417:418   */\n      0x00\n        /* \"#utility.yul\":408:414   */\n      dup4\n        /* \"#utility.yul\":403:406   */\n      dup4\n        /* \"#utility.yul\":399:415   */\n      add\n        /* \"#utility.yul\":392:419   */\n      mstore\n        /* \"#utility.yul\":287:426   */\n      pop\n      pop\n      pop\n      jump\t// out\n        /* \"#utility.yul\":432:534   */\n    tag_46:\n        /* \"#utility.yul\":473:479   */\n      0x00\n        /* \"#utility.yul\":524:526   */\n      0x1f\n        /* \"#utility.yul\":520:527   */\n      not\n        /* \"#utility.yul\":515:517   */\n      0x1f\n        /* \"#utility.yul\":508:513   */\n      dup4\n        /* \"#utility.yul\":504:518   */\n      add\n        /* \"#utility.yul\":500:528   */\n      and\n        /* \"#utility.yul\":490:528   */\n      swap1\n      pop\n        /* \"#utility.yul\":432:534   */\n      swap2\n      swap1\n      pop\n      jump\t// out\n        /* \"#utility.yul\":540:917   */\n    tag_47:\n        /* \"#utility.yul\":628:631   */\n      0x00\n        /* \"#utility.yul\":656:695   */\n      tag_90\n        /* \"#utility.yul\":689:694   */\n      dup3\n        /* \"#utility.yul\":656:695   */\n      tag_43\n      jump\t// in\n    tag_90:\n        /* \"#utility.yul\":711:782   */\n      tag_91\n        /* \"#utility.yul\":775:781   */\n      dup2\n        /* \"#utility.yul\":770:773   */\n      dup6\n        /* \"#utility.yul\":711:782   */\n      tag_44\n      jump\t// in\n    tag_91:\n        /* \"#utility.yul\":704:782   */\n      swap4\n      pop\n        /* \"#utility.yul\":791:856   */\n      tag_92\n        /* \"#utility.yul\":849:855   */\n      dup2\n        /* \"#utility.yul\":844:847   */\n      dup6\n        /* \"#utility.yul\":837:841   */\n      0x20\n        /* \"#utility.yul\":830:835   */\n      dup7\n        /* \"#utility.yul\":826:842   */\n      add\n        /* \"#utility.yul\":791:856   */\n      tag_45\n      jump\t// in\n    tag_92:\n        /* \"#utility.yul\":881:910   */\n      tag_93\n        /* \"#utility.yul\":903:909   */\n      dup2\n        /* \"#utility.yul\":881:910   */\n      tag_46\n      jump\t// in\n    tag_93:\n        /* \"#utility.yul\":876:879   */\n      dup5\n        /* \"#utility.yul\":872:911   */\n      add\n        /* \"#utility.yul\":865:911   */\n      swap2\n      pop\n        /* \"#utility.yul\":632:917   */\n      pop\n        /* \"#utility.yul\":540:917   */\n      swap3\n      swap2\n      pop\n      pop\n      jump\t// out\n        /* \"#utility.yul\":923:1013   */\n    tag_48:\n        /* \"#utility.yul\":957:964   */\n      0x00\n        /* \"#utility.yul\":1000:1005   */\n      dup2\n        /* \"#utility.yul\":993:1006   */\n      iszero\n        /* \"#utility.yul\":986:1007   */\n      iszero\n        /* \"#utility.yul\":975:1007   */\n      swap1\n      pop\n        /* \"#utility.yul\":923:1013   */\n      swap2\n      swap1\n      pop\n      jump\t// out\n        /* \"#utility.yul\":1019:1128   */\n    tag_49:\n        /* \"#utility.yul\":1100:1121   */\n      tag_96\n        /* \"#utility.yul\":1115:1120   */\n      dup2\n        /* \"#utility.yul\":1100:1121   */\n      tag_48\n      jump\t// in\n    tag_96:\n        /* \"#utility.yul\":1095:1098   */\n      dup3\n        /* \"#utility.yul\":1088:1122   */\n      mstore\n        /* \"#utility.yul\":1019:1128   */\n      pop\n      pop\n      jump\t// out\n        /* \"#utility.yul\":1134:1211   */\n    tag_50:\n        /* \"#utility.yul\":1171:1178   */\n      0x00\n        /* \"#utility.yul\":1200:1205   */\n      dup2\n        /* \"#utility.yul\":1189:1205   */\n      swap1\n      pop\n        /* \"#utility.yul\":1134:1211   */\n      swap2\n      swap1\n      pop\n      jump\t// out\n        /* \"#utility.yul\":1217:1335   */\n    tag_51:\n        /* \"#utility.yul\":1304:1328   */\n      tag_99\n        /* \"#utility.yul\":1322:1327   */\n      dup2\n        /* \"#utility.yul\":1304:1328   */\n      tag_50\n      jump\t// in\n    tag_99:\n        /* \"#utility.yul\":1299:1302   */\n      dup3\n        /* \"#utility.yul\":1292:1329   */\n      mstore\n        /* \"#utility.yul\":1217:1335   */\n      pop\n      pop\n      jump\t// out\n        /* \"#utility.yul\":1341:2064   */\n    tag_9:\n        /* \"#utility.yul\":1552:1556   */\n      0x00\n        /* \"#utility.yul\":1590:1593   */\n      0x80\n        /* \"#utility.yul\":1579:1588   */\n      dup3\n        /* \"#utility.yul\":1575:1594   */\n      add\n        /* \"#utility.yul\":1567:1594   */\n      swap1\n      pop\n        /* \"#utility.yul\":1640:1649   */\n      dup2\n        /* \"#utility.yul\":1634:1638   */\n      dup2\n        /* \"#utility.yul\":1630:1650   */\n      sub\n        /* \"#utility.yul\":1626:1627   */\n      0x00\n        /* \"#utility.yul\":1615:1624   */\n      dup4\n        /* \"#utility.yul\":1611:1628   */\n      add\n        /* \"#utility.yul\":1604:1651   */\n      mstore\n        /* \"#utility.yul\":1668:1746   */\n      tag_101\n        /* \"#utility.yul\":1741:1745   */\n      dup2\n        /* \"#utility.yul\":1732:1738   */\n      dup8\n        /* \"#utility.yul\":1668:1746   */\n      tag_47\n      jump\t// in\n    tag_101:\n        /* \"#utility.yul\":1660:1746   */\n      swap1\n      pop\n        /* \"#utility.yul\":1793:1802   */\n      dup2\n        /* \"#utility.yul\":1787:1791   */\n      dup2\n        /* \"#utility.yul\":1783:1803   */\n      sub\n        /* \"#utility.yul\":1778:1780   */\n      0x20\n        /* \"#utility.yul\":1767:1776   */\n      dup4\n        /* \"#utility.yul\":1763:1781   */\n      add\n        /* \"#utility.yul\":1756:1804   */\n      mstore\n        /* \"#utility.yul\":1821:1899   */\n      tag_102\n        /* \"#utility.yul\":1894:1898   */\n      dup2\n        /* \"#utility.yul\":1885:1891   */\n      dup7\n        /* \"#utility.yul\":1821:1899   */\n      tag_47\n      jump\t// in\n    tag_102:\n        /* \"#utility.yul\":1813:1899   */\n      swap1\n      pop\n        /* \"#utility.yul\":1909:1975   */\n      tag_103\n        /* \"#utility.yul\":1971:1973   */\n      0x40\n        /* \"#utility.yul\":1960:1969   */\n      dup4\n        /* \"#utility.yul\":1956:1974   */\n      add\n        /* \"#utility.yul\":1947:1953   */\n      dup6\n        /* \"#utility.yul\":1909:1975   */\n      tag_49\n      jump\t// in\n    tag_103:\n        /* \"#utility.yul\":1985:2057   */\n      tag_104\n        /* \"#utility.yul\":2053:2055   */\n      0x60\n        /* \"#utility.yul\":2042:2051   */\n      dup4\n        /* \"#utility.yul\":2038:2056   */\n      add\n        /* \"#utility.yul\":2029:2035   */\n      dup5\n        /* \"#utility.yul\":1985:2057   */\n      tag_51\n      jump\t// in\n    tag_104:\n        /* \"#utility.yul\":1341:2064   */\n      swap6\n      swap5\n      pop\n      pop\n      pop\n      pop\n      pop\n      jump\t// out\n        /* \"#utility.yul\":2070:2145   */\n    tag_52:\n        /* \"#utility.yul\":2103:2109   */\n      0x00\n        /* \"#utility.yul\":2136:2138   */\n      0x40\n        /* \"#utility.yul\":2130:2139   */\n      mload\n        /* \"#utility.yul\":2120:2139   */\n      swap1\n      pop\n        /* \"#utility.yul\":2070:2145   */\n      swap1\n      jump\t// out\n        /* \"#utility.yul\":2151:2268   */\n    tag_53:\n        /* \"#utility.yul\":2260:2261   */\n      0x00\n        /* \"#utility.yul\":2257:2258   */\n      0x00\n        /* \"#utility.yul\":2250:2262   */\n      revert\n        /* \"#utility.yul\":2274:2391   */\n    tag_54:\n        /* \"#utility.yul\":2383:2384   */\n      0x00\n        /* \"#utility.yul\":2380:2381   */\n      0x00\n        /* \"#utility.yul\":2373:2385   */\n      revert\n        /* \"#utility.yul\":2397:2514   */\n    tag_55:\n        /* \"#utility.yul\":2506:2507   */\n      0x00\n        /* \"#utility.yul\":2503:2504   */\n      0x00\n        /* \"#utility.yul\":2496:2508   */\n      revert\n        /* \"#utility.yul\":2520:2637   */\n    tag_56:\n        /* \"#utility.yul\":2629:2630   */\n      0x00\n        /* \"#utility.yul\":2626:2627   */\n      0x00\n        /* \"#utility.yul\":2619:2631   */\n      revert\n        /* \"#utility.yul\":2643:2823   */\n    tag_57:\n        /* \"#utility.yul\":2691:2768   */\n      0x4e487b7100000000000000000000000000000000000000000000000000000000\n        /* \"#utility.yul\":2688:2689   */\n      0x00\n        /* \"#utility.yul\":2681:2769   */\n      mstore\n        /* \"#utility.yul\":2788:2792   */\n      0x41\n        /* \"#utility.yul\":2785:2786   */\n      0x04\n        /* \"#utility.yul\":2778:2793   */\n      mstore\n        /* \"#utility.yul\":2812:2816   */\n      0x24\n        /* \"#utility.yul\":2809:2810   */\n      0x00\n        /* \"#utility.yul\":2802:2817   */\n      revert\n        /* \"#utility.yul\":2829:3110   */\n    tag_58:\n        /* \"#utility.yul\":2912:2939   */\n      tag_112\n        /* \"#utility.yul\":2934:2938   */\n      dup3\n        /* \"#utility.yul\":2912:2939   */\n      tag_46\n      jump\t// in\n    tag_112:\n        /* \"#utility.yul\":2904:2910   */\n      dup2\n        /* \"#utility.yul\":2900:2940   */\n      add\n        /* \"#utility.yul\":3042:3048   */\n      dup2\n        /* \"#utility.yul\":3030:3040   */\n      dup2\n        /* \"#utility.yul\":3027:3049   */\n      lt\n        /* \"#utility.yul\":3006:3024   */\n      0xffffffffffffffff\n        /* \"#utility.yul\":2994:3004   */\n      dup3\n        /* \"#utility.yul\":2991:3025   */\n      gt\n        /* \"#utility.yul\":2988:3050   */\n      or\n        /* \"#utility.yul\":2985:3073   */\n      iszero\n      tag_113\n      jumpi\n        /* \"#utility.yul\":3053:3071   */\n      tag_114\n      tag_57\n      jump\t// in\n    tag_114:\n        /* \"#utility.yul\":2985:3073   */\n    tag_113:\n        /* \"#utility.yul\":3093:3103   */\n      dup1\n        /* \"#utility.yul\":3089:3091   */\n      0x40\n        /* \"#utility.yul\":3082:3104   */\n      mstore\n        /* \"#utility.yul\":2872:3110   */\n      pop\n        /* \"#utility.yul\":2829:3110   */\n      pop\n      pop\n      jump\t// out\n        /* \"#utility.yul\":3116:3245   */\n    tag_59:\n        /* \"#utility.yul\":3150:3156   */\n      0x00\n        /* \"#utility.yul\":3177:3197   */\n      tag_116\n      tag_52\n      jump\t// in\n    tag_116:\n        /* \"#utility.yul\":3167:3197   */\n      swap1\n      pop\n        /* \"#utility.yul\":3206:3239   */\n      tag_117\n        /* \"#utility.yul\":3234:3238   */\n      dup3\n        /* \"#utility.yul\":3226:3232   */\n      dup3\n        /* \"#utility.yul\":3206:3239   */\n      tag_58\n      jump\t// in\n    tag_117:\n        /* \"#utility.yul\":3116:3245   */\n      swap2\n      swap1\n      pop\n      jump\t// out\n        /* \"#utility.yul\":3251:3559   */\n    tag_60:\n        /* \"#utility.yul\":3313:3317   */\n      0x00\n        /* \"#utility.yul\":3403:3421   */\n      0xffffffffffffffff\n        /* \"#utility.yul\":3395:3401   */\n      dup3\n        /* \"#utility.yul\":3392:3422   */\n      gt\n        /* \"#utility.yul\":3389:3445   */\n      iszero\n      tag_119\n      jumpi\n        /* \"#utility.yul\":3425:3443   */\n      tag_120\n      tag_57\n      jump\t// in\n    tag_120:\n        /* \"#utility.yul\":3389:3445   */\n    tag_119:\n        /* \"#utility.yul\":3463:3492   */\n      tag_121\n        /* \"#utility.yul\":3485:3491   */\n      dup3\n        /* \"#utility.yul\":3463:3492   */\n      tag_46\n      jump\t// in\n    tag_121:\n        /* \"#utility.yul\":3455:3492   */\n      swap1\n      pop\n        /* \"#utility.yul\":3547:3551   */\n      0x20\n        /* \"#utility.yul\":3541:3545   */\n      dup2\n        /* \"#utility.yul\":3537:3552   */\n      add\n        /* \"#utility.yul\":3529:3552   */\n      swap1\n      pop\n        /* \"#utility.yul\":3251:3559   */\n      swap2\n      swap1\n      pop\n      jump\t// out\n        /* \"#utility.yul\":3565:3713   */\n    tag_61:\n        /* \"#utility.yul\":3663:3669   */\n      dup3\n        /* \"#utility.yul\":3658:3661   */\n      dup2\n        /* \"#utility.yul\":3653:3656   */\n      dup4\n        /* \"#utility.yul\":3640:3670   */\n      calldatacopy\n        /* \"#utility.yul\":3704:3705   */\n      0x00\n        /* \"#utility.yul\":3695:3701   */\n      dup4\n        /* \"#utility.yul\":3690:3693   */\n      dup4\n        /* \"#utility.yul\":3686:3702   */\n      add\n        /* \"#utility.yul\":3679:3706   */\n      mstore\n        /* \"#utility.yul\":3565:3713   */\n      pop\n      pop\n      pop\n      jump\t// out\n        /* \"#utility.yul\":3719:4144   */\n    tag_62:\n        /* \"#utility.yul\":3797:3802   */\n      0x00\n        /* \"#utility.yul\":3822:3888   */\n      tag_124\n        /* \"#utility.yul\":3838:3887   */\n      tag_125\n        /* \"#utility.yul\":3880:3886   */\n      dup5\n        /* \"#utility.yul\":3838:3887   */\n      tag_60\n      jump\t// in\n    tag_125:\n        /* \"#utility.yul\":3822:3888   */\n      tag_59\n      jump\t// in\n    tag_124:\n        /* \"#utility.yul\":3813:3888   */\n      swap1\n      pop\n        /* \"#utility.yul\":3911:3917   */\n      dup3\n        /* \"#utility.yul\":3904:3909   */\n      dup2\n        /* \"#utility.yul\":3897:3918   */\n      mstore\n        /* \"#utility.yul\":3949:3953   */\n      0x20\n        /* \"#utility.yul\":3942:3947   */\n      dup2\n        /* \"#utility.yul\":3938:3954   */\n      add\n        /* \"#utility.yul\":3987:3990   */\n      dup5\n        /* \"#utility.yul\":3978:3984   */\n      dup5\n        /* \"#utility.yul\":3973:3976   */\n      dup5\n        /* \"#utility.yul\":3969:3985   */\n      add\n        /* \"#utility.yul\":3966:3991   */\n      gt\n        /* \"#utility.yul\":3963:4075   */\n      iszero\n      tag_126\n      jumpi\n        /* \"#utility.yul\":3994:4073   */\n      tag_127\n      tag_56\n      jump\t// in\n    tag_127:\n        /* \"#utility.yul\":3963:4075   */\n    tag_126:\n        /* \"#utility.yul\":4084:4138   */\n      tag_128\n        /* \"#utility.yul\":4131:4137   */\n      dup5\n        /* \"#utility.yul\":4126:4129   */\n      dup3\n        /* \"#utility.yul\":4121:4124   */\n      dup6\n        /* \"#utility.yul\":4084:4138   */\n      tag_61\n      jump\t// in\n    tag_128:\n        /* \"#utility.yul\":3803:4144   */\n      pop\n        /* \"#utility.yul\":3719:4144   */\n      swap4\n      swap3\n      pop\n      pop\n      pop\n      jump\t// out\n        /* \"#utility.yul\":4164:4504   */\n    tag_63:\n        /* \"#utility.yul\":4220:4225   */\n      0x00\n        /* \"#utility.yul\":4269:4272   */\n      dup3\n        /* \"#utility.yul\":4262:4266   */\n      0x1f\n        /* \"#utility.yul\":4254:4260   */\n      dup4\n        /* \"#utility.yul\":4250:4267   */\n      add\n        /* \"#utility.yul\":4246:4273   */\n      slt\n        /* \"#utility.yul\":4236:4358   */\n      tag_130\n      jumpi\n        /* \"#utility.yul\":4277:4356   */\n      tag_131\n      tag_55\n      jump\t// in\n    tag_131:\n        /* \"#utility.yul\":4236:4358   */\n    tag_130:\n        /* \"#utility.yul\":4394:4400   */\n      dup2\n        /* \"#utility.yul\":4381:4401   */\n      calldataload\n        /* \"#utility.yul\":4419:4498   */\n      tag_132\n        /* \"#utility.yul\":4494:4497   */\n      dup5\n        /* \"#utility.yul\":4486:4492   */\n      dup3\n        /* \"#utility.yul\":4479:4483   */\n      0x20\n        /* \"#utility.yul\":4471:4477   */\n      dup7\n        /* \"#utility.yul\":4467:4484   */\n      add\n        /* \"#utility.yul\":4419:4498   */\n      tag_62\n      jump\t// in\n    tag_132:\n        /* \"#utility.yul\":4410:4498   */\n      swap2\n      pop\n        /* \"#utility.yul\":4226:4504   */\n      pop\n        /* \"#utility.yul\":4164:4504   */\n      swap3\n      swap2\n      pop\n      pop\n      jump\t// out\n        /* \"#utility.yul\":4510:4626   */\n    tag_64:\n        /* \"#utility.yul\":4580:4601   */\n      tag_134\n        /* \"#utility.yul\":4595:4600   */\n      dup2\n        /* \"#utility.yul\":4580:4601   */\n      tag_48\n      jump\t// in\n    tag_134:\n        /* \"#utility.yul\":4573:4578   */\n      dup2\n        /* \"#utility.yul\":4570:4602   */\n      eq\n        /* \"#utility.yul\":4560:4620   */\n      tag_135\n      jumpi\n        /* \"#utility.yul\":4616:4617   */\n      0x00\n        /* \"#utility.yul\":4613:4614   */\n      0x00\n        /* \"#utility.yul\":4606:4618   */\n      revert\n        /* \"#utility.yul\":4560:4620   */\n    tag_135:\n        /* \"#utility.yul\":4510:4626   */\n      pop\n      jump\t// out\n        /* \"#utility.yul\":4632:4765   */\n    tag_65:\n        /* \"#utility.yul\":4675:4680   */\n      0x00\n        /* \"#utility.yul\":4713:4719   */\n      dup2\n        /* \"#utility.yul\":4700:4720   */\n      calldataload\n        /* \"#utility.yul\":4691:4720   */\n      swap1\n      pop\n        /* \"#utility.yul\":4729:4759   */\n      tag_137\n        /* \"#utility.yul\":4753:4758   */\n      dup2\n        /* \"#utility.yul\":4729:4759   */\n      tag_64\n      jump\t// in\n    tag_137:\n        /* \"#utility.yul\":4632:4765   */\n      swap3\n      swap2\n      pop\n      pop\n      jump\t// out\n        /* \"#utility.yul\":4771:4893   */\n    tag_66:\n        /* \"#utility.yul\":4844:4868   */\n      tag_139\n        /* \"#utility.yul\":4862:4867   */\n      dup2\n        /* \"#utility.yul\":4844:4868   */\n      tag_50\n      jump\t// in\n    tag_139:\n        /* \"#utility.yul\":4837:4842   */\n      dup2\n        /* \"#utility.yul\":4834:4869   */\n      eq\n        /* \"#utility.yul\":4824:4887   */\n      tag_140\n      jumpi\n        /* \"#utility.yul\":4883:4884   */\n      0x00\n        /* \"#utility.yul\":4880:4881   */\n      0x00\n        /* \"#utility.yul\":4873:4885   */\n      revert\n        /* \"#utility.yul\":4824:4887   */\n    tag_140:\n        /* \"#utility.yul\":4771:4893   */\n      pop\n      jump\t// out\n        /* \"#utility.yul\":4899:5038   */\n    tag_67:\n        /* \"#utility.yul\":4945:4950   */\n      0x00\n        /* \"#utility.yul\":4983:4989   */\n      dup2\n        /* \"#utility.yul\":4970:4990   */\n      calldataload\n        /* \"#utility.yul\":4961:4990   */\n      swap1\n      pop\n        /* \"#utility.yul\":4999:5032   */\n      tag_142\n        /* \"#utility.yul\":5026:5031   */\n      dup2\n        /* \"#utility.yul\":4999:5032   */\n      tag_66\n      jump\t// in\n    tag_142:\n        /* \"#utility.yul\":4899:5038   */\n      swap3\n      swap2\n      pop\n      pop\n      jump\t// out\n        /* \"#utility.yul\":5044:6163   */\n    tag_15:\n        /* \"#utility.yul\":5147:5153   */\n      0x00\n        /* \"#utility.yul\":5155:5161   */\n      0x00\n        /* \"#utility.yul\":5163:5169   */\n      0x00\n        /* \"#utility.yul\":5171:5177   */\n      0x00\n        /* \"#utility.yul\":5220:5223   */\n      0x80\n        /* \"#utility.yul\":5208:5217   */\n      dup6\n        /* \"#utility.yul\":5199:5206   */\n      dup8\n        /* \"#utility.yul\":5195:5218   */\n      sub\n        /* \"#utility.yul\":5191:5224   */\n      slt\n        /* \"#utility.yul\":5188:5308   */\n      iszero\n      tag_144\n      jumpi\n        /* \"#utility.yul\":5227:5306   */\n      tag_145\n      tag_53\n      jump\t// in\n    tag_145:\n        /* \"#utility.yul\":5188:5308   */\n    tag_144:\n        /* \"#utility.yul\":5375:5376   */\n      0x00\n        /* \"#utility.yul\":5364:5373   */\n      dup6\n        /* \"#utility.yul\":5360:5377   */\n      add\n        /* \"#utility.yul\":5347:5378   */\n      calldataload\n        /* \"#utility.yul\":5405:5423   */\n      0xffffffffffffffff\n        /* \"#utility.yul\":5397:5403   */\n      dup2\n        /* \"#utility.yul\":5394:5424   */\n      gt\n        /* \"#utility.yul\":5391:5508   */\n      iszero\n      tag_146\n      jumpi\n        /* \"#utility.yul\":5427:5506   */\n      tag_147\n      tag_54\n      jump\t// in\n    tag_147:\n        /* \"#utility.yul\":5391:5508   */\n    tag_146:\n        /* \"#utility.yul\":5532:5595   */\n      tag_148\n        /* \"#utility.yul\":5587:5594   */\n      dup8\n        /* \"#utility.yul\":5578:5584   */\n      dup3\n        /* \"#utility.yul\":5567:5576   */\n      dup9\n        /* \"#utility.yul\":5563:5585   */\n      add\n        /* \"#utility.yul\":5532:5595   */\n      tag_63\n      jump\t// in\n    tag_148:\n        /* \"#utility.yul\":5522:5595   */\n      swap5\n      pop\n        /* \"#utility.yul\":5318:5605   */\n      pop\n        /* \"#utility.yul\":5672:5674   */\n      0x20\n        /* \"#utility.yul\":5661:5670   */\n      dup6\n        /* \"#utility.yul\":5657:5675   */\n      add\n        /* \"#utility.yul\":5644:5676   */\n      calldataload\n        /* \"#utility.yul\":5703:5721   */\n      0xffffffffffffffff\n        /* \"#utility.yul\":5695:5701   */\n      dup2\n        /* \"#utility.yul\":5692:5722   */\n      gt\n        /* \"#utility.yul\":5689:5806   */\n      iszero\n      tag_149\n      jumpi\n        /* \"#utility.yul\":5725:5804   */\n      tag_150\n      tag_54\n      jump\t// in\n    tag_150:\n        /* \"#utility.yul\":5689:5806   */\n    tag_149:\n        /* \"#utility.yul\":5830:5893   */\n      tag_151\n        /* \"#utility.yul\":5885:5892   */\n      dup8\n        /* \"#utility.yul\":5876:5882   */\n      dup3\n        /* \"#utility.yul\":5865:5874   */\n      dup9\n        /* \"#utility.yul\":5861:5883   */\n      add\n        /* \"#utility.yul\":5830:5893   */\n      tag_63\n      jump\t// in\n    tag_151:\n        /* \"#utility.yul\":5820:5893   */\n      swap4\n      pop\n        /* \"#utility.yul\":5615:5903   */\n      pop\n        /* \"#utility.yul\":5942:5944   */\n      0x40\n        /* \"#utility.yul\":5968:6018   */\n      tag_152\n        /* \"#utility.yul\":6010:6017   */\n      dup8\n        /* \"#utility.yul\":6001:6007   */\n      dup3\n        /* \"#utility.yul\":5990:5999   */\n      dup9\n        /* \"#utility.yul\":5986:6008   */\n      add\n        /* \"#utility.yul\":5968:6018   */\n      tag_65\n      jump\t// in\n    tag_152:\n        /* \"#utility.yul\":5958:6018   */\n      swap3\n      pop\n        /* \"#utility.yul\":5913:6028   */\n      pop\n        /* \"#utility.yul\":6067:6069   */\n      0x60\n        /* \"#utility.yul\":6093:6146   */\n      tag_153\n        /* \"#utility.yul\":6138:6145   */\n      dup8\n        /* \"#utility.yul\":6129:6135   */\n      dup3\n        /* \"#utility.yul\":6118:6127   */\n      dup9\n        /* \"#utility.yul\":6114:6136   */\n      add\n        /* \"#utility.yul\":6093:6146   */\n      tag_67\n      jump\t// in\n    tag_153:\n        /* \"#utility.yul\":6083:6146   */\n      swap2\n      pop\n        /* \"#utility.yul\":6038:6156   */\n      pop\n        /* \"#utility.yul\":5044:6163   */\n      swap3\n      swap6\n      swap2\n      swap5\n      pop\n      swap3\n      pop\n      jump\t// out\n        /* \"#utility.yul\":6169:6349   */\n    tag_68:\n        /* \"#utility.yul\":6217:6294   */\n      0x4e487b7100000000000000000000000000000000000000000000000000000000\n        /* \"#utility.yul\":6214:6215   */\n      0x00\n        /* \"#utility.yul\":6207:6295   */\n      mstore\n        /* \"#utility.yul\":6314:6318   */\n      0x22\n        /* \"#utility.yul\":6311:6312   */\n      0x04\n        /* \"#utility.yul\":6304:6319   */\n      mstore\n        /* \"#utility.yul\":6338:6342   */\n      0x24\n        /* \"#utility.yul\":6335:6336   */\n      0x00\n        /* \"#utility.yul\":6328:6343   */\n      revert\n        /* \"#utility.yul\":6355:6675   */\n    tag_18:\n        /* \"#utility.yul\":6399:6405   */\n      0x00\n        /* \"#utility.yul\":6436:6437   */\n      0x02\n        /* \"#utility.yul\":6430:6434   */\n      dup3\n        /* \"#utility.yul\":6426:6438   */\n      div\n        /* \"#utility.yul\":6416:6438   */\n      swap1\n      pop\n        /* \"#utility.yul\":6483:6484   */\n      0x01\n        /* \"#utility.yul\":6477:6481   */\n      dup3\n        /* \"#utility.yul\":6473:6485   */\n      and\n        /* \"#utility.yul\":6504:6522   */\n      dup1\n        /* \"#utility.yul\":6494:6575   */\n      tag_156\n      jumpi\n        /* \"#utility.yul\":6560:6564   */\n      0x7f\n        /* \"#utility.yul\":6552:6558   */\n      dup3\n        /* \"#utility.yul\":6548:6565   */\n      and\n        /* \"#utility.yul\":6538:6565   */\n      swap2\n      pop\n        /* \"#utility.yul\":6494:6575   */\n    tag_156:\n        /* \"#utility.yul\":6622:6624   */\n      0x20\n        /* \"#utility.yul\":6614:6620   */\n      dup3\n        /* \"#utility.yul\":6611:6625   */\n      lt\n        /* \"#utility.yul\":6591:6609   */\n      dup2\n        /* \"#utility.yul\":6588:6626   */\n      sub\n        /* \"#utility.yul\":6585:6669   */\n      tag_157\n      jumpi\n        /* \"#utility.yul\":6641:6659   */\n      tag_158\n      tag_68\n      jump\t// in\n    tag_158:\n        /* \"#utility.yul\":6585:6669   */\n    tag_157:\n        /* \"#utility.yul\":6406:6675   */\n      pop\n        /* \"#utility.yul\":6355:6675   */\n      swap2\n      swap1\n      pop\n      jump\t// out\n        /* \"#utility.yul\":6681:6822   */\n    tag_69:\n        /* \"#utility.yul\":6730:6734   */\n      0x00\n        /* \"#utility.yul\":6753:6756   */\n      dup2\n        /* \"#utility.yul\":6745:6756   */\n      swap1\n      pop\n        /* \"#utility.yul\":6776:6779   */\n      dup2\n        /* \"#utility.yul\":6773:6774   */\n      0x00\n        /* \"#utility.yul\":6766:6780   */\n      mstore\n        /* \"#utility.yul\":6810:6814   */\n      0x20\n        /* \"#utility.yul\":6807:6808   */\n      0x00\n        /* \"#utility.yul\":6797:6815   */\n      keccak256\n        /* \"#utility.yul\":6789:6815   */\n      swap1\n      pop\n        /* \"#utility.yul\":6681:6822   */\n      swap2\n      swap1\n      pop\n      jump\t// out\n        /* \"#utility.yul\":6828:6921   */\n    tag_70:\n        /* \"#utility.yul\":6865:6871   */\n      0x00\n        /* \"#utility.yul\":6912:6914   */\n      0x20\n        /* \"#utility.yul\":6907:6909   */\n      0x1f\n        /* \"#utility.yul\":6900:6905   */\n      dup4\n        /* \"#utility.yul\":6896:6910   */\n      add\n        /* \"#utility.yul\":6892:6915   */\n      div\n        /* \"#utility.yul\":6882:6915   */\n      swap1\n      pop\n        /* \"#utility.yul\":6828:6921   */\n      swap2\n      swap1\n      pop\n      jump\t// out\n        /* \"#utility.yul\":6927:7034   */\n    tag_71:\n        /* \"#utility.yul\":6971:6979   */\n      0x00\n        /* \"#utility.yul\":7021:7026   */\n      dup3\n        /* \"#utility.yul\":7015:7019   */\n      dup3\n        /* \"#utility.yul\":7011:7027   */\n      shl\n        /* \"#utility.yul\":6990:7027   */\n      swap1\n      pop\n        /* \"#utility.yul\":6927:7034   */\n      swap3\n      swap2\n      pop\n      pop\n      jump\t// out\n        /* \"#utility.yul\":7040:7433   */\n    tag_72:\n        /* \"#utility.yul\":7109:7115   */\n      0x00\n        /* \"#utility.yul\":7159:7160   */\n      0x08\n        /* \"#utility.yul\":7147:7157   */\n      dup4\n        /* \"#utility.yul\":7143:7161   */\n      mul\n        /* \"#utility.yul\":7182:7279   */\n      tag_163\n        /* \"#utility.yul\":7212:7278   */\n      0xffffffffffffffffffffffffffffffffffffffffffffffffffffffffffffffff\n        /* \"#utility.yul\":7201:7210   */\n      dup3\n        /* \"#utility.yul\":7182:7279   */\n      tag_71\n      jump\t// in\n    tag_163:\n        /* \"#utility.yul\":7300:7339   */\n      tag_164\n        /* \"#utility.yul\":7330:7338   */\n      dup7\n        /* \"#utility.yul\":7319:7328   */\n      dup4\n        /* \"#utility.yul\":7300:7339   */\n      tag_71\n      jump\t// in\n    tag_164:\n        /* \"#utility.yul\":7288:7339   */\n      swap6\n      pop\n        /* \"#utility.yul\":7372:7376   */\n      dup1\n        /* \"#utility.yul\":7368:7377   */\n      not\n        /* \"#utility.yul\":7361:7366   */\n      dup5\n        /* \"#utility.yul\":7357:7378   */\n      and\n        /* \"#utility.yul\":7348:7378   */\n      swap4\n      pop\n        /* \"#utility.yul\":7421:7425   */\n      dup1\n        /* \"#utility.yul\":7411:7419   */\n      dup7\n        /* \"#utility.yul\":7407:7426   */\n      and\n        /* \"#utility.yul\":7400:7405   */\n      dup5\n        /* \"#utility.yul\":7397:7427   */\n      or\n        /* \"#utility.yul\":7387:7427   */\n      swap3\n      pop\n        /* \"#utility.yul\":7116:7433   */\n      pop\n      pop\n        /* \"#utility.yul\":7040:7433   */\n      swap4\n      swap3\n      pop\n      pop\n      pop\n      jump\t// out\n        /* \"#utility.yul\":7439:7499   */\n    tag_73:\n        /* \"#utility.yul\":7467:7470   */\n      0x00\n        /* \"#utility.yul\":7488:7493   */\n      dup2\n        /* \"#utility.yul\":7481:7493   */\n      swap1\n      pop\n        /* \"#utility.yul\":7439:7499   */\n      swap2\n      swap1\n      pop\n      jump\t// out\n        /* \"#utility.yul\":7505:7647   */\n    tag_74:\n        /* \"#utility.yul\":7555:7564   */\n      0x00\n        /* \"#utility.yul\":7588:7641   */\n      tag_167\n        /* \"#utility.yul\":7606:7640   */\n      tag_168\n        /* \"#utility.yul\":7615:7639   */\n      tag_169\n        /* \"#utility.yul\":7633:7638   */\n      dup5\n        /* \"#utility.yul\":7615:7639   */\n      tag_50\n      jump\t// in\n    tag_169:\n        /* \"#utility.yul\":7606:7640   */\n      tag_73\n      jump\t// in\n    tag_168:\n        /* \"#utility.yul\":7588:7641   */\n      tag_50\n      jump\t// in\n    tag_167:\n        /* \"#utility.yul\":7575:7641   */\n      swap1\n      pop\n        /* \"#utility.yul\":7505:7647   */\n      swap2\n      swap1\n      pop\n      jump\t// out\n        /* \"#utility.yul\":7653:7728   */\n    tag_75:\n        /* \"#utility.yul\":7696:7699   */\n      0x00\n        /* \"#utility.yul\":7717:7722   */\n      dup2\n        /* \"#utility.yul\":7710:7722   */\n      swap1\n      pop\n        /* \"#utility.yul\":7653:7728   */\n      swap2\n      swap1\n      pop\n      jump\t// out\n        /* \"#utility.yul\":7734:8003   */\n    tag_76:\n        /* \"#utility.yul\":7844:7883   */\n      tag_172\n        /* \"#utility.yul\":7875:7882   */\n      dup4\n        /* \"#utility.yul\":7844:7883   */\n      tag_74\n      jump\t// in\n    tag_172:\n        /* \"#utility.yul\":7905:7996   */\n      tag_173\n        /* \"#utility.yul\":7954:7995   */\n      tag_174\n        /* \"#utility.yul\":7978:7994   */\n      dup3\n        /* \"#utility.yul\":7954:7995   */\n      tag_75\n      jump\t// in\n    tag_174:\n        /* \"#utility.yul\":7946:7952   */\n      dup5\n        /* \"#utility.yul\":7939:7943   */\n      dup5\n        /* \"#utility.yul\":7933:7944   */\n      sload\n        /* \"#utility.yul\":7905:7996   */\n      tag_72\n      jump\t// in\n    tag_173:\n        /* \"#utility.yul\":7899:7903   */\n      dup3\n        /* \"#utility.yul\":7892:7997   */\n      sstore\n        /* \"#utility.yul\":7810:8003   */\n      pop\n        /* \"#utility.yul\":7734:8003   */\n      pop\n      pop\n      pop\n      jump\t// out\n        /* \"#utility.yul\":8009:8082   */\n    tag_77:\n        /* \"#utility.yul\":8054:8057   */\n      0x00\n        /* \"#utility.yul\":8075:8076   */\n      0x00\n        /* \"#utility.yul\":8068:8076   */\n      swap1\n      pop\n        /* \"#utility.yul\":8009:8082   */\n      swap1\n      jump\t// out\n        /* \"#utility.yul\":8088:8277   */\n    tag_78:\n        /* \"#utility.yul\":8165:8197   */\n      tag_177\n      tag_77\n      jump\t// in\n    tag_177:\n        /* \"#utility.yul\":8206:8271   */\n      tag_178\n        /* \"#utility.yul\":8264:8270   */\n      dup2\n        /* \"#utility.yul\":8256:8262   */\n      dup5\n        /* \"#utility.yul\":8250:8254   */\n      dup5\n        /* \"#utility.yul\":8206:8271   */\n      tag_76\n      jump\t// in\n    tag_178:\n        /* \"#utility.yul\":8141:8277   */\n      pop\n        /* \"#utility.yul\":8088:8277   */\n      pop\n      pop\n      jump\t// out\n        /* \"#utility.yul\":8283:8469   */\n    tag_79:\n        /* \"#utility.yul\":8343:8463   */\n    tag_180:\n        /* \"#utility.yul\":8360:8363   */\n      dup2\n        /* \"#utility.yul\":8353:8358   */\n      dup2\n        /* \"#utility.yul\":8350:8364   */\n      lt\n        /* \"#utility.yul\":8343:8463   */\n      iszero\n      tag_182\n      jumpi\n        /* \"#utility.yul\":8414:8453   */\n      tag_183\n        /* \"#utility.yul\":8451:8452   */\n      0x00\n        /* \"#utility.yul\":8444:8449   */\n      dup3\n        /* \"#utility.yul\":8414:8453   */\n      tag_78\n      jump\t// in\n    tag_183:\n        /* \"#utility.yul\":8387:8388   */\n      0x01\n        /* \"#utility.yul\":8380:8385   */\n      dup2\n        /* \"#utility.yul\":8376:8389   */\n      add\n        /* \"#utility.yul\":8367:8389   */\n      swap1\n      pop\n        /* \"#utility.yul\":8343:8463   */\n      jump(tag_180)\n    tag_182:\n        /* \"#utility.yul\":8283:8469   */\n      pop\n      pop\n      jump\t// out\n        /* \"#utility.yul\":8475:9018   */\n    tag_80:\n        /* \"#utility.yul\":8576:8578   */\n      0x1f\n        /* \"#utility.yul\":8571:8574   */\n      dup3\n        /* \"#utility.yul\":8568:8579   */\n      gt\n        /* \"#utility.yul\":8565:9011   */\n      iszero\n      tag_185\n      jumpi\n        /* \"#utility.yul\":8610:8648   */\n      tag_186\n        /* \"#utility.yul\":8642:8647   */\n      dup2\n        /* \"#utility.yul\":8610:8648   */\n      tag_69\n      jump\t// in\n    tag_186:\n        /* \"#utility.yul\":8694:8723   */\n      tag_187\n        /* \"#utility.yul\":8712:8722   */\n      dup5\n        /* \"#utility.yul\":8694:8723   */\n      tag_70\n      jump\t// in\n    tag_187:\n        /* \"#utility.yul\":8684:8692   */\n      dup2\n        /* \"#utility.yul\":8680:8724   */\n      add\n        /* \"#utility.yul\":8877:8879   */\n      0x20\n        /* \"#utility.yul\":8865:8875   */\n      dup6\n        /* \"#utility.yul\":8862:8880   */\n      lt\n        /* \"#utility.yul\":8859:8908   */\n      iszero\n      tag_188\n      jumpi\n        /* \"#utility.yul\":8898:8906   */\n      dup2\n        /* \"#utility.yul\":8883:8906   */\n      swap1\n      pop\n        /* \"#utility.yul\":8859:8908   */\n    tag_188:\n        /* \"#utility.yul\":8921:9001   */\n      tag_189\n        /* \"#utility.yul\":8977:8999   */\n      tag_190\n        /* \"#utility.yul\":8995:8998   */\n      dup6\n        /* \"#utility.yul\":8977:8999   */\n      tag_70\n      jump\t// in\n    tag_190:\n        /* \"#utility.yul\":8967:8975   */\n      dup4\n        /* \"#utility.yul\":8963:9000   */\n      add\n        /* \"#utility.yul\":8950:8961   */\n      dup3\n        /* \"#utility.yul\":8921:9001   */\n      tag_79\n      jump\t// in\n    tag_189:\n        /* \"#utility.yul\":8580:9011   */\n      pop\n      pop\n        /* \"#utility.yul\":8565:9011   */\n    tag_185:\n        /* \"#utility.yul\":8475:9018   */\n      pop\n      pop\n      pop\n      jump\t// out\n        /* \"#utility.yul\":9024:9141   */\n    tag_81:\n        /* \"#utility.yul\":9078:9086   */\n      0x00\n        /* \"#utility.yul\":9128:9133   */\n      dup3\n        /* \"#utility.yul\":9122:9126   */\n      dup3\n        /* \"#utility.yul\":9118:9134   */\n      shr\n        /* \"#utility.yul\":9097:9134   */\n      swap1\n      pop\n        /* \"#utility.yul\":9024:9141   */\n      swap3\n      swap2\n      pop\n      pop\n      jump\t// out\n        /* \"#utility.yul\":9147:9316   */\n    tag_82:\n        /* \"#utility.yul\":9191:9197   */\n      0x00\n        /* \"#utility.yul\":9224:9275   */\n      tag_193\n        /* \"#utility.yul\":9272:9273   */\n      0x00\n        /* \"#utility.yul\":9268:9274   */\n      not\n        /* \"#utility.yul\":9260:9265   */\n      dup5\n        /* \"#utility.yul\":9257:9258   */\n      0x08\n        /* \"#utility.yul\":9253:9266   */\n      mul\n        /* \"#utility.yul\":9224:9275   */\n      tag_81\n      jump\t// in\n    tag_193:\n        /* \"#utility.yul\":9220:9276   */\n      not\n        /* \"#utility.yul\":9305:9309   */\n      dup1\n        /* \"#utility.yul\":9299:9303   */\n      dup4\n        /* \"#utility.yul\":9295:9310   */\n      and\n        /* \"#utility.yul\":9285:9310   */\n      swap2\n      pop\n        /* \"#utility.yul\":9198:9316   */\n      pop\n        /* \"#utility.yul\":9147:9316   */\n      swap3\n      swap2\n      pop\n      pop\n      jump\t// out\n        /* \"#utility.yul\":9321:9616   */\n    tag_83:\n        /* \"#utility.yul\":9397:9401   */\n      0x00\n        /* \"#utility.yul\":9543:9572   */\n      tag_195\n        /* \"#utility.yul\":9568:9571   */\n      dup4\n        /* \"#utility.yul\":9562:9566   */\n      dup4\n        /* \"#utility.yul\":9543:9572   */\n      tag_82\n      jump\t// in\n    tag_195:\n        /* \"#utility.yul\":9535:9572   */\n      swap2\n      pop\n        /* \"#utility.yul\":9605:9608   */\n      dup3\n        /* \"#utility.yul\":9602:9603   */\n      0x02\n        /* \"#utility.yul\":9598:9609   */\n      mul\n        /* \"#utility.yul\":9592:9596   */\n      dup3\n        /* \"#utility.yul\":9589:9610   */\n      or\n        /* \"#utility.yul\":9581:9610   */\n      swap1\n      pop\n        /* \"#utility.yul\":9321:9616   */\n      swap3\n      swap2\n      pop\n      pop\n      jump\t// out\n        /* \"#utility.yul\":9621:11016   */\n    tag_41:\n        /* \"#utility.yul\":9738:9775   */\n      tag_197\n        /* \"#utility.yul\":9771:9774   */\n      dup3\n        /* \"#utility.yul\":9738:9775   */\n      tag_43\n      jump\t// in\n    tag_197:\n        /* \"#utility.yul\":9840:9858   */\n      0xffffffffffffffff\n        /* \"#utility.yul\":9832:9838   */\n      dup2\n        /* \"#utility.yul\":9829:9859   */\n      gt\n        /* \"#utility.yul\":9826:9882   */\n      iszero\n      tag_198\n      jumpi\n        /* \"#utility.yul\":9862:9880   */\n      tag_199\n      tag_57\n      jump\t// in\n    tag_199:\n        /* \"#utility.yul\":9826:9882   */\n    tag_198:\n        /* \"#utility.yul\":9906:9944   */\n      tag_200\n        /* \"#utility.yul\":9938:9942   */\n      dup3\n        /* \"#utility.yul\":9932:9943   */\n      sload\n        /* \"#utility.yul\":9906:9944   */\n      tag_18\n      jump\t// in\n    tag_200:\n        /* \"#utility.yul\":9991:10058   */\n      tag_201\n        /* \"#utility.yul\":10051:10057   */\n      dup3\n        /* \"#utility.yul\":10043:10049   */\n      dup3\n        /* \"#utility.yul\":10037:10041   */\n      dup6\n        /* \"#utility.yul\":9991:10058   */\n      tag_80\n      jump\t// in\n    tag_201:\n        /* \"#utility.yul\":10085:10086   */\n      0x00\n        /* \"#utility.yul\":10109:10113   */\n      0x20\n        /* \"#utility.yul\":10096:10113   */\n      swap1\n      pop\n        /* \"#utility.yul\":10141:10143   */\n      0x1f\n        /* \"#utility.yul\":10133:10139   */\n      dup4\n        /* \"#utility.yul\":10130:10144   */\n      gt\n        /* \"#utility.yul\":10158:10159   */\n      0x01\n        /* \"#utility.yul\":10153:10771   */\n      dup2\n      eq\n      tag_203\n      jumpi\n        /* \"#utility.yul\":10815:10816   */\n      0x00\n        /* \"#utility.yul\":10832:10838   */\n      dup5\n        /* \"#utility.yul\":10829:10906   */\n      iszero\n      tag_204\n      jumpi\n        /* \"#utility.yul\":10881:10890   */\n      dup3\n        /* \"#utility.yul\":10876:10879   */\n      dup8\n        /* \"#utility.yul\":10872:10891   */\n      add\n        /* \"#utility.yul\":10866:10892   */\n      mload\n        /* \"#utility.yul\":10857:10892   */\n      swap1\n      pop\n        /* \"#utility.yul\":10829:10906   */\n    tag_204:\n        /* \"#utility.yul\":10932:10999   */\n      tag_205\n        /* \"#utility.yul\":10992:10998   */\n      dup6\n        /* \"#utility.yul\":10985:10990   */\n      dup3\n        /* \"#utility.yul\":10932:10999   */\n      tag_83\n      jump\t// in\n    tag_205:\n        /* \"#utility.yul\":10926:10930   */\n      dup7\n        /* \"#utility.yul\":10919:11000   */\n      sstore\n        /* \"#utility.yul\":10788:11010   */\n      pop\n        /* \"#utility.yul\":10123:11010   */\n      jump(tag_202)\n        /* \"#utility.yul\":10153:10771   */\n    tag_203:\n        /* \"#utility.yul\":10205:10209   */\n      0x1f\n        /* \"#utility.yul\":10201:10210   */\n      not\n        /* \"#utility.yul\":10193:10199   */\n      dup5\n        /* \"#utility.yul\":10189:10211   */\n      and\n        /* \"#utility.yul\":10239:10276   */\n      tag_206\n        /* \"#utility.yul\":10271:10275   */\n      dup7\n        /* \"#utility.yul\":10239:10276   */\n      tag_69\n      jump\t// in\n    tag_206:\n        /* \"#utility.yul\":10298:10299   */\n      0x00\n        /* \"#utility.yul\":10312:10520   */\n    tag_207:\n        /* \"#utility.yul\":10326:10333   */\n      dup3\n        /* \"#utility.yul\":10323:10324   */\n      dup2\n        /* \"#utility.yul\":10320:10334   */\n      lt\n        /* \"#utility.yul\":10312:10520   */\n      iszero\n      tag_209\n      jumpi\n        /* \"#utility.yul\":10405:10414   */\n      dup5\n        /* \"#utility.yul\":10400:10403   */\n      dup10\n        /* \"#utility.yul\":10396:10415   */\n      add\n        /* \"#utility.yul\":10390:10416   */\n      mload\n        /* \"#utility.yul\":10382:10388   */\n      dup3\n        /* \"#utility.yul\":10375:10417   */\n      sstore\n        /* \"#utility.yul\":10456:10457   */\n      0x01\n        /* \"#utility.yul\":10448:10454   */\n      dup3\n        /* \"#utility.yul\":10444:10458   */\n      add\n        /* \"#utility.yul\":10434:10458   */\n      swap2\n      pop\n        /* \"#utility.yul\":10503:10505   */\n      0x20\n        /* \"#utility.yul\":10492:10501   */\n      dup6\n        /* \"#utility.yul\":10488:10506   */\n      add\n        /* \"#utility.yul\":10475:10506   */\n      swap5\n      pop\n        /* \"#utility.yul\":10349:10353   */\n      0x20\n        /* \"#utility.yul\":10346:10347   */\n      dup2\n        /* \"#utility.yul\":10342:10354   */\n      add\n        /* \"#utility.yul\":10337:10354   */\n      swap1\n      pop\n        /* \"#utility.yul\":10312:10520   */\n      jump(tag_207)\n    tag_209:\n        /* \"#utility.yul\":10548:10554   */\n      dup7\n        /* \"#utility.yul\":10539:10546   */\n      dup4\n        /* \"#utility.yul\":10536:10555   */\n      lt\n        /* \"#utility.yul\":10533:10712   */\n      iszero\n      tag_210\n      jumpi\n        /* \"#utility.yul\":10606:10615   */\n      dup5\n        /* \"#utility.yul\":10601:10604   */\n      dup10\n        /* \"#utility.yul\":10597:10616   */\n      add\n        /* \"#utility.yul\":10591:10617   */\n      mload\n        /* \"#utility.yul\":10649:10697   */\n      tag_211\n        /* \"#utility.yul\":10691:10695   */\n      0x1f\n        /* \"#utility.yul\":10683:10689   */\n      dup10\n        /* \"#utility.yul\":10679:10696   */\n      and\n        /* \"#utility.yul\":10668:10677   */\n      dup3\n        /* \"#utility.yul\":10649:10697   */\n      tag_82\n      jump\t// in\n    tag_211:\n        /* \"#utility.yul\":10641:10647   */\n      dup4\n        /* \"#utility.yul\":10634:10698   */\n      sstore\n        /* \"#utility.yul\":10556:10712   */\n      pop\n        /* \"#utility.yul\":10533:10712   */\n    tag_210:\n        /* \"#utility.yul\":10758:10759   */\n      0x01\n        /* \"#utility.yul\":10754:10755   */\n      0x02\n        /* \"#utility.yul\":10746:10752   */\n      dup9\n        /* \"#utility.yul\":10742:10756   */\n      mul\n        /* \"#utility.yul\":10738:10760   */\n      add\n        /* \"#utility.yul\":10732:10736   */\n      dup9\n        /* \"#utility.yul\":10725:10761   */\n      sstore\n        /* \"#utility.yul\":10160:10771   */\n      pop\n      pop\n      pop\n        /* \"#utility.yul\":10123:11010   */\n    tag_202:\n      pop\n        /* \"#utility.yul\":9713:11016   */\n      pop\n      pop\n      pop\n        /* \"#utility.yul\":9621:11016   */\n      pop\n      pop\n      jump\t// out\n\n    auxdata: 0xa26469706673582212200d80b92296ddeb89084c251403324055902049b6293fdad47928e14cc79c52d764736f6c634300081e0033\n}\n",
				"bytecode": {
					"linkReferences": {},
					"object": "6080604052348015600e575f5ffd5b506109bb8061001c5f395ff3fe608060405234801561000f575f5ffd5b506004361061003f575f3560e01c80635a2ee01914610043578063785d06f514610064578063ec5fa56814610085575b5f5ffd5b61004b6100a1565b60405161005b949392919061043b565b60405180910390f35b61006c6101d5565b60405161007c949392919061043b565b60405180910390f35b61009f600480360381019061009a919061061d565b610319565b005b5f805f0180546100b0906106e6565b80601f01602080910402602001604051908101604052809291908181526020018280546100dc906106e6565b80156101275780601f106100fe57610100808354040283529160200191610127565b820191905f5260205f20905b81548152906001019060200180831161010a57829003601f168201915b50505050509080600101805461013c906106e6565b80601f0160208091040260200160405190810160405280929190818152602001828054610168906106e6565b80156101b35780601f1061018a576101008083540402835291602001916101b3565b820191905f5260205f20905b81548152906001019060200180831161019657829003601f168201915b505050505090806002015f9054906101000a900460ff16908060030154905084565b6060805f5f5f5f015f6001015f6002015f9054906101000a900460ff165f60030154838054610203906106e6565b80601f016020809104026020016040519081016040528092919081815260200182805461022f906106e6565b801561027a5780601f106102515761010080835404028352916020019161027a565b820191905f5260205f20905b81548152906001019060200180831161025d57829003601f168201915b5050505050935082805461028d906106e6565b80601f01602080910402602001604051908101604052809291908181526020018280546102b9906106e6565b80156103045780601f106102db57610100808354040283529160200191610304565b820191905f5260205f20905b8154815290600101906020018083116102e757829003601f168201915b50505050509250935093509350935090919293565b60405180608001604052808581526020018481526020018315158152602001828152505f5f820151815f01908161035091906108b6565b50602082015181600101908161036691906108b6565b506040820151816002015f6101000a81548160ff0219169083151502179055506060820151816003015590505050505050565b5f81519050919050565b5f82825260208201905092915050565b8281835e5f83830152505050565b5f601f19601f8301169050919050565b5f6103db82610399565b6103e581856103a3565b93506103f58185602086016103b3565b6103fe816103c1565b840191505092915050565b5f8115159050919050565b61041d81610409565b82525050565b5f819050919050565b61043581610423565b82525050565b5f6080820190508181035f83015261045381876103d1565b9050818103602083015261046781866103d1565b90506104766040830185610414565b610483606083018461042c565b95945050505050565b5f604051905090565b5f5ffd5b5f5ffd5b5f5ffd5b5f5ffd5b7f4e487b71000000000000000000000000000000000000000000000000000000005f52604160045260245ffd5b6104db826103c1565b810181811067ffffffffffffffff821117156104fa576104f96104a5565b5b80604052505050565b5f61050c61048c565b905061051882826104d2565b919050565b5f67ffffffffffffffff821115610537576105366104a5565b5b610540826103c1565b9050602081019050919050565b828183375f83830152505050565b5f61056d6105688461051d565b610503565b905082815260208101848484011115610589576105886104a1565b5b61059484828561054d565b509392505050565b5f82601f8301126105b0576105af61049d565b5b81356105c084826020860161055b565b91505092915050565b6105d281610409565b81146105dc575f5ffd5b50565b5f813590506105ed816105c9565b92915050565b6105fc81610423565b8114610606575f5ffd5b50565b5f81359050610617816105f3565b92915050565b5f5f5f5f6080858703121561063557610634610495565b5b5f85013567ffffffffffffffff81111561065257610651610499565b5b61065e8782880161059c565b945050602085013567ffffffffffffffff81111561067f5761067e610499565b5b61068b8782880161059c565b935050604061069c878288016105df565b92505060606106ad87828801610609565b91505092959194509250565b7f4e487b71000000000000000000000000000000000000000000000000000000005f52602260045260245ffd5b5f60028204905060018216806106fd57607f821691505b6020821081036107105761070f6106b9565b5b50919050565b5f819050815f5260205f209050919050565b5f6020601f8301049050919050565b5f82821b905092915050565b5f600883026107727fffffffffffffffffffffffffffffffffffffffffffffffffffffffffffffffff82610737565b61077c8683610737565b95508019841693508086168417925050509392505050565b5f819050919050565b5f6107b76107b26107ad84610423565b610794565b610423565b9050919050565b5f819050919050565b6107d08361079d565b6107e46107dc826107be565b848454610743565b825550505050565b5f5f905090565b6107fb6107ec565b6108068184846107c7565b505050565b5b818110156108295761081e5f826107f3565b60018101905061080c565b5050565b601f82111561086e5761083f81610716565b61084884610728565b81016020851015610857578190505b61086b61086385610728565b83018261080b565b50505b505050565b5f82821c905092915050565b5f61088e5f1984600802610873565b1980831691505092915050565b5f6108a6838361087f565b9150826002028217905092915050565b6108bf82610399565b67ffffffffffffffff8111156108d8576108d76104a5565b5b6108e282546106e6565b6108ed82828561082d565b5f60209050601f83116001811461091e575f841561090c578287015190505b610916858261089b565b86555061097d565b601f19841661092c86610716565b5f5b828110156109535784890151825560018201915060208501945060208101905061092e565b86831015610970578489015161096c601f89168261087f565b8355505b6001600288020188555050505b50505050505056fea26469706673582212200d80b92296ddeb89084c251403324055902049b6293fdad47928e14cc79c52d764736f6c634300081e0033",
					"opcodes": "PUSH1 0x80 PUSH1 0x40 MSTORE CALLVALUE DUP1 ISZERO PUSH1 0xE JUMPI PUSH0 PUSH0 REVERT JUMPDEST POP PUSH2 0x9BB DUP1 PUSH2 0x1C PUSH0 CODECOPY PUSH0 RETURN INVALID PUSH1 0x80 PUSH1 0x40 MSTORE CALLVALUE DUP1 ISZERO PUSH2 0xF JUMPI PUSH0 PUSH0 REVERT JUMPDEST POP PUSH1 0x4 CALLDATASIZE LT PUSH2 0x3F JUMPI PUSH0 CALLDATALOAD PUSH1 0xE0 SHR DUP1 PUSH4 0x5A2EE019 EQ PUSH2 0x43 JUMPI DUP1 PUSH4 0x785D06F5 EQ PUSH2 0x64 JUMPI DUP1 PUSH4 0xEC5FA568 EQ PUSH2 0x85 JUMPI JUMPDEST PUSH0 PUSH0 REVERT JUMPDEST PUSH2 0x4B PUSH2 0xA1 JUMP JUMPDEST PUSH1 0x40 MLOAD PUSH2 0x5B SWAP5 SWAP4 SWAP3 SWAP2 SWAP1 PUSH2 0x43B JUMP JUMPDEST PUSH1 0x40 MLOAD DUP1 SWAP2 SUB SWAP1 RETURN JUMPDEST PUSH2 0x6C PUSH2 0x1D5 JUMP JUMPDEST PUSH1 0x40 MLOAD PUSH2 0x7C SWAP5 SWAP4 SWAP3 SWAP2 SWAP1 PUSH2 0x43B JUMP JUMPDEST PUSH1 0x40 MLOAD DUP1 SWAP2 SUB SWAP1 RETURN JUMPDEST PUSH2 0x9F PUSH1 0x4 DUP1 CALLDATASIZE SUB DUP2 ADD SWAP1 PUSH2 0x9A SWAP2 SWAP1 PUSH2 0x61D JUMP JUMPDEST PUSH2 0x319 JUMP JUMPDEST STOP JUMPDEST PUSH0 DUP1 PUSH0 ADD DUP1 SLOAD PUSH2 0xB0 SWAP1 PUSH2 0x6E6 JUMP JUMPDEST DUP1 PUSH1 0x1F ADD PUSH1 0x20 DUP1 SWAP2 DIV MUL PUSH1 0x20 ADD PUSH1 0x40 MLOAD SWAP1 DUP2 ADD PUSH1 0x40 MSTORE DUP1 SWAP3 SWAP2 SWAP1 DUP2 DUP2 MSTORE PUSH1 0x20 ADD DUP3 DUP1 SLOAD PUSH2 0xDC SWAP1 PUSH2 0x6E6 JUMP JUMPDEST DUP1 ISZERO PUSH2 0x127 JUMPI DUP1 PUSH1 0x1F LT PUSH2 0xFE JUMPI PUSH2 0x100 DUP1 DUP4 SLOAD DIV MUL DUP4 MSTORE SWAP2 PUSH1 0x20 ADD SWAP2 PUSH2 0x127 JUMP JUMPDEST DUP3 ADD SWAP2 SWAP1 PUSH0 MSTORE PUSH1 0x20 PUSH0 KECCAK256 SWAP1 JUMPDEST DUP2 SLOAD DUP2 MSTORE SWAP1 PUSH1 0x1 ADD SWAP1 PUSH1 0x20 ADD DUP1 DUP4 GT PUSH2 0x10A JUMPI DUP3 SWAP1 SUB PUSH1 0x1F AND DUP3 ADD SWAP2 JUMPDEST POP POP POP POP POP SWAP1 DUP1 PUSH1 0x1 ADD DUP1 SLOAD PUSH2 0x13C SWAP1 PUSH2 0x6E6 JUMP JUMPDEST DUP1 PUSH1 0x1F ADD PUSH1 0x20 DUP1 SWAP2 DIV MUL PUSH1 0x20 ADD PUSH1 0x40 MLOAD SWAP1 DUP2 ADD PUSH1 0x40 MSTORE DUP1 SWAP3 SWAP2 SWAP1 DUP2 DUP2 MSTORE PUSH1 0x20 ADD DUP3 DUP1 SLOAD PUSH2 0x168 SWAP1 PUSH2 0x6E6 JUMP JUMPDEST DUP1 ISZERO PUSH2 0x1B3 JUMPI DUP1 PUSH1 0x1F LT PUSH2 0x18A JUMPI PUSH2 0x100 DUP1 DUP4 SLOAD DIV MUL DUP4 MSTORE SWAP2 PUSH1 0x20 ADD SWAP2 PUSH2 0x1B3 JUMP JUMPDEST DUP3 ADD SWAP2 SWAP1 PUSH0 MSTORE PUSH1 0x20 PUSH0 KECCAK256 SWAP1 JUMPDEST DUP2 SLOAD DUP2 MSTORE SWAP1 PUSH1 0x1 ADD SWAP1 PUSH1 0x20 ADD DUP1 DUP4 GT PUSH2 0x196 JUMPI DUP3 SWAP1 SUB PUSH1 0x1F AND DUP3 ADD SWAP2 JUMPDEST POP POP POP POP POP SWAP1 DUP1 PUSH1 0x2 ADD PUSH0 SWAP1 SLOAD SWAP1 PUSH2 0x100 EXP SWAP1 DIV PUSH1 0xFF AND SWAP1 DUP1 PUSH1 0x3 ADD SLOAD SWAP1 POP DUP5 JUMP JUMPDEST PUSH1 0x60 DUP1 PUSH0 PUSH0 PUSH0 PUSH0 ADD PUSH0 PUSH1 0x1 ADD PUSH0 PUSH1 0x2 ADD PUSH0 SWAP1 SLOAD SWAP1 PUSH2 0x100 EXP SWAP1 DIV PUSH1 0xFF AND PUSH0 PUSH1 0x3 ADD SLOAD DUP4 DUP1 SLOAD PUSH2 0x203 SWAP1 PUSH2 0x6E6 JUMP JUMPDEST DUP1 PUSH1 0x1F ADD PUSH1 0x20 DUP1 SWAP2 DIV MUL PUSH1 0x20 ADD PUSH1 0x40 MLOAD SWAP1 DUP2 ADD PUSH1 0x40 MSTORE DUP1 SWAP3 SWAP2 SWAP1 DUP2 DUP2 MSTORE PUSH1 0x20 ADD DUP3 DUP1 SLOAD PUSH2 0x22F SWAP1 PUSH2 0x6E6 JUMP JUMPDEST DUP1 ISZERO PUSH2 0x27A JUMPI DUP1 PUSH1 0x1F LT PUSH2 0x251 JUMPI PUSH2 0x100 DUP1 DUP4 SLOAD DIV MUL DUP4 MSTORE SWAP2 PUSH1 0x20 ADD SWAP2 PUSH2 0x27A JUMP JUMPDEST DUP3 ADD SWAP2 SWAP1 PUSH0 MSTORE PUSH1 0x20 PUSH0 KECCAK256 SWAP1 JUMPDEST DUP2 SLOAD DUP2 MSTORE SWAP1 PUSH1 0x1 ADD SWAP1 PUSH1 0x20 ADD DUP1 DUP4 GT PUSH2 0x25D JUMPI DUP3 SWAP1 SUB PUSH1 0x1F AND DUP3 ADD SWAP2 JUMPDEST POP POP POP POP POP SWAP4 POP DUP3 DUP1 SLOAD PUSH2 0x28D SWAP1 PUSH2 0x6E6 JUMP JUMPDEST DUP1 PUSH1 0x1F ADD PUSH1 0x20 DUP1 SWAP2 DIV MUL PUSH1 0x20 ADD PUSH1 0x40 MLOAD SWAP1 DUP2 ADD PUSH1 0x40 MSTORE DUP1 SWAP3 SWAP2 SWAP1 DUP2 DUP2 MSTORE PUSH1 0x20 ADD DUP3 DUP1 SLOAD PUSH2 0x2B9 SWAP1 PUSH2 0x6E6 JUMP JUMPDEST DUP1 ISZERO PUSH2 0x304 JUMPI DUP1 PUSH1 0x1F LT PUSH2 0x2DB JUMPI PUSH2 0x100 DUP1 DUP4 SLOAD DIV MUL DUP4 MSTORE SWAP2 PUSH1 0x20 ADD SWAP2 PUSH2 0x304 JUMP JUMPDEST DUP3 ADD SWAP2 SWAP1 PUSH0 MSTORE PUSH1 0x20 PUSH0 KECCAK256 SWAP1 JUMPDEST DUP2 SLOAD DUP2 MSTORE SWAP1 PUSH1 0x1 ADD SWAP1 PUSH1 0x20 ADD DUP1 DUP4 GT PUSH2 0x2E7 JUMPI DUP3 SWAP1 SUB PUSH1 0x1F AND DUP3 ADD SWAP2 JUMPDEST POP POP POP POP POP SWAP3 POP SWAP4 POP SWAP4 POP SWAP4 POP SWAP4 POP SWAP1 SWAP2 SWAP3 SWAP4 JUMP JUMPDEST PUSH1 0x40 MLOAD DUP1 PUSH1 0x80 ADD PUSH1 0x40 MSTORE DUP1 DUP6 DUP2 MSTORE PUSH1 0x20 ADD DUP5 DUP2 MSTORE PUSH1 0x20 ADD DUP4 ISZERO ISZERO DUP2 MSTORE PUSH1 0x20 ADD DUP3 DUP2 MSTORE POP PUSH0 PUSH0 DUP3 ADD MLOAD DUP2 PUSH0 ADD SWAP1 DUP2 PUSH2 0x350 SWAP2 SWAP1 PUSH2 0x8B6 JUMP JUMPDEST POP PUSH1 0x20 DUP3 ADD MLOAD DUP2 PUSH1 0x1 ADD SWAP1 DUP2 PUSH2 0x366 SWAP2 SWAP1 PUSH2 0x8B6 JUMP JUMPDEST POP PUSH1 0x40 DUP3 ADD MLOAD DUP2 PUSH1 0x2 ADD PUSH0 PUSH2 0x100 EXP DUP2 SLOAD DUP2 PUSH1 0xFF MUL NOT AND SWAP1 DUP4 ISZERO ISZERO MUL OR SWAP1 SSTORE POP PUSH1 0x60 DUP3 ADD MLOAD DUP2 PUSH1 0x3 ADD SSTORE SWAP1 POP POP POP POP POP POP JUMP JUMPDEST PUSH0 DUP2 MLOAD SWAP1 POP SWAP2 SWAP1 POP JUMP JUMPDEST PUSH0 DUP3 DUP3 MSTORE PUSH1 0x20 DUP3 ADD SWAP1 POP SWAP3 SWAP2 POP POP JUMP JUMPDEST DUP3 DUP2 DUP4 MCOPY PUSH0 DUP4 DUP4 ADD MSTORE POP POP POP JUMP JUMPDEST PUSH0 PUSH1 0x1F NOT PUSH1 0x1F DUP4 ADD AND SWAP1 POP SWAP2 SWAP1 POP JUMP JUMPDEST PUSH0 PUSH2 0x3DB DUP3 PUSH2 0x399 JUMP JUMPDEST PUSH2 0x3E5 DUP2 DUP6 PUSH2 0x3A3 JUMP JUMPDEST SWAP4 POP PUSH2 0x3F5 DUP2 DUP6 PUSH1 0x20 DUP7 ADD PUSH2 0x3B3 JUMP JUMPDEST PUSH2 0x3FE DUP2 PUSH2 0x3C1 JUMP JUMPDEST DUP5 ADD SWAP2 POP POP SWAP3 SWAP2 POP POP JUMP JUMPDEST PUSH0 DUP2 ISZERO ISZERO SWAP1 POP SWAP2 SWAP1 POP JUMP JUMPDEST PUSH2 0x41D DUP2 PUSH2 0x409 JUMP JUMPDEST DUP3 MSTORE POP POP JUMP JUMPDEST PUSH0 DUP2 SWAP1 POP SWAP2 SWAP1 POP JUMP JUMPDEST PUSH2 0x435 DUP2 PUSH2 0x423 JUMP JUMPDEST DUP3 MSTORE POP POP JUMP JUMPDEST PUSH0 PUSH1 0x80 DUP3 ADD SWAP1 POP DUP2 DUP2 SUB PUSH0 DUP4 ADD MSTORE PUSH2 0x453 DUP2 DUP8 PUSH2 0x3D1 JUMP JUMPDEST SWAP1 POP DUP2 DUP2 SUB PUSH1 0x20 DUP4 ADD MSTORE PUSH2 0x467 DUP2 DUP7 PUSH2 0x3D1 JUMP JUMPDEST SWAP1 POP PUSH2 0x476 PUSH1 0x40 DUP4 ADD DUP6 PUSH2 0x414 JUMP JUMPDEST PUSH2 0x483 PUSH1 0x60 DUP4 ADD DUP5 PUSH2 0x42C JUMP JUMPDEST SWAP6 SWAP5 POP POP POP POP POP JUMP JUMPDEST PUSH0 PUSH1 0x40 MLOAD SWAP1 POP SWAP1 JUMP JUMPDEST PUSH0 PUSH0 REVERT JUMPDEST PUSH0 PUSH0 REVERT JUMPDEST PUSH0 PUSH0 REVERT JUMPDEST PUSH0 PUSH0 REVERT JUMPDEST PUSH32 0x4E487B7100000000000000000000000000000000000000000000000000000000 PUSH0 MSTORE PUSH1 0x41 PUSH1 0x4 MSTORE PUSH1 0x24 PUSH0 REVERT JUMPDEST PUSH2 0x4DB DUP3 PUSH2 0x3C1 JUMP JUMPDEST DUP2 ADD DUP2 DUP2 LT PUSH8 0xFFFFFFFFFFFFFFFF DUP3 GT OR ISZERO PUSH2 0x4FA JUMPI PUSH2 0x4F9 PUSH2 0x4A5 JUMP JUMPDEST JUMPDEST DUP1 PUSH1 0x40 MSTORE POP POP POP JUMP JUMPDEST PUSH0 PUSH2 0x50C PUSH2 0x48C JUMP JUMPDEST SWAP1 POP PUSH2 0x518 DUP3 DUP3 PUSH2 0x4D2 JUMP JUMPDEST SWAP2 SWAP1 POP JUMP JUMPDEST PUSH0 PUSH8 0xFFFFFFFFFFFFFFFF DUP3 GT ISZERO PUSH2 0x537 JUMPI PUSH2 0x536 PUSH2 0x4A5 JUMP JUMPDEST JUMPDEST PUSH2 0x540 DUP3 PUSH2 0x3C1 JUMP JUMPDEST SWAP1 POP PUSH1 0x20 DUP2 ADD SWAP1 POP SWAP2 SWAP1 POP JUMP JUMPDEST DUP3 DUP2 DUP4 CALLDATACOPY PUSH0 DUP4 DUP4 ADD MSTORE POP POP POP JUMP JUMPDEST PUSH0 PUSH2 0x56D PUSH2 0x568 DUP5 PUSH2 0x51D JUMP JUMPDEST PUSH2 0x503 JUMP JUMPDEST SWAP1 POP DUP3 DUP2 MSTORE PUSH1 0x20 DUP2 ADD DUP5 DUP5 DUP5 ADD GT ISZERO PUSH2 0x589 JUMPI PUSH2 0x588 PUSH2 0x4A1 JUMP JUMPDEST JUMPDEST PUSH2 0x594 DUP5 DUP3 DUP6 PUSH2 0x54D JUMP JUMPDEST POP SWAP4 SWAP3 POP POP POP JUMP JUMPDEST PUSH0 DUP3 PUSH1 0x1F DUP4 ADD SLT PUSH2 0x5B0 JUMPI PUSH2 0x5AF PUSH2 0x49D JUMP JUMPDEST JUMPDEST DUP2 CALLDATALOAD PUSH2 0x5C0 DUP5 DUP3 PUSH1 0x20 DUP7 ADD PUSH2 0x55B JUMP JUMPDEST SWAP2 POP POP SWAP3 SWAP2 POP POP JUMP JUMPDEST PUSH2 0x5D2 DUP2 PUSH2 0x409 JUMP JUMPDEST DUP2 EQ PUSH2 0x5DC JUMPI PUSH0 PUSH0 REVERT JUMPDEST POP JUMP JUMPDEST PUSH0 DUP2 CALLDATALOAD SWAP1 POP PUSH2 0x5ED DUP2 PUSH2 0x5C9 JUMP JUMPDEST SWAP3 SWAP2 POP POP JUMP JUMPDEST PUSH2 0x5FC DUP2 PUSH2 0x423 JUMP JUMPDEST DUP2 EQ PUSH2 0x606 JUMPI PUSH0 PUSH0 REVERT JUMPDEST POP JUMP JUMPDEST PUSH0 DUP2 CALLDATALOAD SWAP1 POP PUSH2 0x617 DUP2 PUSH2 0x5F3 JUMP JUMPDEST SWAP3 SWAP2 POP POP JUMP JUMPDEST PUSH0 PUSH0 PUSH0 PUSH0 PUSH1 0x80 DUP6 DUP8 SUB SLT ISZERO PUSH2 0x635 JUMPI PUSH2 0x634 PUSH2 0x495 JUMP JUMPDEST JUMPDEST PUSH0 DUP6 ADD CALLDATALOAD PUSH8 0xFFFFFFFFFFFFFFFF DUP2 GT ISZERO PUSH2 0x652 JUMPI PUSH2 0x651 PUSH2 0x499 JUMP JUMPDEST JUMPDEST PUSH2 0x65E DUP8 DUP3 DUP9 ADD PUSH2 0x59C JUMP JUMPDEST SWAP5 POP POP PUSH1 0x20 DUP6 ADD CALLDATALOAD PUSH8 0xFFFFFFFFFFFFFFFF DUP2 GT ISZERO PUSH2 0x67F JUMPI PUSH2 0x67E PUSH2 0x499 JUMP JUMPDEST JUMPDEST PUSH2 0x68B DUP8 DUP3 DUP9 ADD PUSH2 0x59C JUMP JUMPDEST SWAP4 POP POP PUSH1 0x40 PUSH2 0x69C DUP8 DUP3 DUP9 ADD PUSH2 0x5DF JUMP JUMPDEST SWAP3 POP POP PUSH1 0x60 PUSH2 0x6AD DUP8 DUP3 DUP9 ADD PUSH2 0x609 JUMP JUMPDEST SWAP2 POP POP SWAP3 SWAP6 SWAP2 SWAP5 POP SWAP3 POP JUMP JUMPDEST PUSH32 0x4E487B7100000000000000000000000000000000000000000000000000000000 PUSH0 MSTORE PUSH1 0x22 PUSH1 0x4 MSTORE PUSH1 0x24 PUSH0 REVERT JUMPDEST PUSH0 PUSH1 0x2 DUP3 DIV SWAP1 POP PUSH1 0x1 DUP3 AND DUP1 PUSH2 0x6FD JUMPI PUSH1 0x7F DUP3 AND SWAP2 POP JUMPDEST PUSH1 0x20 DUP3 LT DUP2 SUB PUSH2 0x710 JUMPI PUSH2 0x70F PUSH2 0x6B9 JUMP JUMPDEST JUMPDEST POP SWAP2 SWAP1 POP JUMP JUMPDEST PUSH0 DUP2 SWAP1 POP DUP2 PUSH0 MSTORE PUSH1 0x20 PUSH0 KECCAK256 SWAP1 POP SWAP2 SWAP1 POP JUMP JUMPDEST PUSH0 PUSH1 0x20 PUSH1 0x1F DUP4 ADD DIV SWAP1 POP SWAP2 SWAP1 POP JUMP JUMPDEST PUSH0 DUP3 DUP3 SHL SWAP1 POP SWAP3 SWAP2 POP POP JUMP JUMPDEST PUSH0 PUSH1 0x8 DUP4 MUL PUSH2 0x772 PUSH32 0xFFFFFFFFFFFFFFFFFFFFFFFFFFFFFFFFFFFFFFFFFFFFFFFFFFFFFFFFFFFFFFFF DUP3 PUSH2 0x737 JUMP JUMPDEST PUSH2 0x77C DUP7 DUP4 PUSH2 0x737 JUMP JUMPDEST SWAP6 POP DUP1 NOT DUP5 AND SWAP4 POP DUP1 DUP7 AND DUP5 OR SWAP3 POP POP POP SWAP4 SWAP3 POP POP POP JUMP JUMPDEST PUSH0 DUP2 SWAP1 POP SWAP2 SWAP1 POP JUMP JUMPDEST PUSH0 PUSH2 0x7B7 PUSH2 0x7B2 PUSH2 0x7AD DUP5 PUSH2 0x423 JUMP JUMPDEST PUSH2 0x794 JUMP JUMPDEST PUSH2 0x423 JUMP JUMPDEST SWAP1 POP SWAP2 SWAP1 POP JUMP JUMPDEST PUSH0 DUP2 SWAP1 POP SWAP2 SWAP1 POP JUMP JUMPDEST PUSH2 0x7D0 DUP4 PUSH2 0x79D JUMP JUMPDEST PUSH2 0x7E4 PUSH2 0x7DC DUP3 PUSH2 0x7BE JUMP JUMPDEST DUP5 DUP5 SLOAD PUSH2 0x743 JUMP JUMPDEST DUP3 SSTORE POP POP POP POP JUMP JUMPDEST PUSH0 PUSH0 SWAP1 POP SWAP1 JUMP JUMPDEST PUSH2 0x7FB PUSH2 0x7EC JUMP JUMPDEST PUSH2 0x806 DUP2 DUP5 DUP5 PUSH2 0x7C7 JUMP JUMPDEST POP POP POP JUMP JUMPDEST JUMPDEST DUP2 DUP2 LT ISZERO PUSH2 0x829 JUMPI PUSH2 0x81E PUSH0 DUP3 PUSH2 0x7F3 JUMP JUMPDEST PUSH1 0x1 DUP2 ADD SWAP1 POP PUSH2 0x80C JUMP JUMPDEST POP POP JUMP JUMPDEST PUSH1 0x1F DUP3 GT ISZERO PUSH2 0x86E JUMPI PUSH2 0x83F DUP2 PUSH2 0x716 JUMP JUMPDEST PUSH2 0x848 DUP5 PUSH2 0x728 JUMP JUMPDEST DUP2 ADD PUSH1 0x20 DUP6 LT ISZERO PUSH2 0x857 JUMPI DUP2 SWAP1 POP JUMPDEST PUSH2 0x86B PUSH2 0x863 DUP6 PUSH2 0x728 JUMP JUMPDEST DUP4 ADD DUP3 PUSH2 0x80B JUMP JUMPDEST POP POP JUMPDEST POP POP POP JUMP JUMPDEST PUSH0 DUP3 DUP3 SHR SWAP1 POP SWAP3 SWAP2 POP POP JUMP JUMPDEST PUSH0 PUSH2 0x88E PUSH0 NOT DUP5 PUSH1 0x8 MUL PUSH2 0x873 JUMP JUMPDEST NOT DUP1 DUP4 AND SWAP2 POP POP SWAP3 SWAP2 POP POP JUMP JUMPDEST PUSH0 PUSH2 0x8A6 DUP4 DUP4 PUSH2 0x87F JUMP JUMPDEST SWAP2 POP DUP3 PUSH1 0x2 MUL DUP3 OR SWAP1 POP SWAP3 SWAP2 POP POP JUMP JUMPDEST PUSH2 0x8BF DUP3 PUSH2 0x399 JUMP JUMPDEST PUSH8 0xFFFFFFFFFFFFFFFF DUP2 GT ISZERO PUSH2 0x8D8 JUMPI PUSH2 0x8D7 PUSH2 0x4A5 JUMP JUMPDEST JUMPDEST PUSH2 0x8E2 DUP3 SLOAD PUSH2 0x6E6 JUMP JUMPDEST PUSH2 0x8ED DUP3 DUP3 DUP6 PUSH2 0x82D JUMP JUMPDEST PUSH0 PUSH1 0x20 SWAP1 POP PUSH1 0x1F DUP4 GT PUSH1 0x1 DUP2 EQ PUSH2 0x91E JUMPI PUSH0 DUP5 ISZERO PUSH2 0x90C JUMPI DUP3 DUP8 ADD MLOAD SWAP1 POP JUMPDEST PUSH2 0x916 DUP6 DUP3 PUSH2 0x89B JUMP JUMPDEST DUP7 SSTORE POP PUSH2 0x97D JUMP JUMPDEST PUSH1 0x1F NOT DUP5 AND PUSH2 0x92C DUP7 PUSH2 0x716 JUMP JUMPDEST PUSH0 JUMPDEST DUP3 DUP2 LT ISZERO PUSH2 0x953 JUMPI DUP5 DUP10 ADD MLOAD DUP3 SSTORE PUSH1 0x1 DUP3 ADD SWAP2 POP PUSH1 0x20 DUP6 ADD SWAP5 POP PUSH1 0x20 DUP2 ADD SWAP1 POP PUSH2 0x92E JUMP JUMPDEST DUP7 DUP4 LT ISZERO PUSH2 0x970 JUMPI DUP5 DUP10 ADD MLOAD PUSH2 0x96C PUSH1 0x1F DUP10 AND DUP3 PUSH2 0x87F JUMP JUMPDEST DUP4 SSTORE POP JUMPDEST PUSH1 0x1 PUSH1 0x2 DUP9 MUL ADD DUP9 SSTORE POP POP POP JUMPDEST POP POP POP POP POP POP JUMP INVALID LOG2 PUSH5 0x6970667358 0x22 SLT KECCAK256 0xD DUP1 0xB9 0x22 SWAP7 0xDD 0xEB DUP10 ADDMOD 0x4C 0x25 EQ SUB ORIGIN BLOCKHASH SSTORE SWAP1 KECCAK256 BLOBHASH 0xB6 0x29 EXTCODEHASH 0xDA 0xD4 PUSH26 0x28E14CC79C52D764736F6C634300081E00330000000000000000 "
				},
				"gasEstimates": {
					"creation": {
						"codeDepositCost": "498200",
						"executionCost": "528",
						"totalCost": "498728"
					},
					"external": {
						"getm()": "infinite",
						"m()": "infinite",
						"setm(string,string,bool,uint256)": "infinite"
					}
				},
				"methodIdentifiers": {
					"getm()": "785d06f5",
					"m()": "5a2ee019",
					"setm(string,string,bool,uint256)": "ec5fa568"
				}
			},
			"storageLayout": {
				"storage": [
					{
						"astId": 13,
						"contract": "Week3_part2.sol:tutorial3",
						"label": "m",
						"offset": 0,
						"slot": "0",
						"type": "t_struct(Mentee)10_storage"
					}
				],
				"types": {
					"t_bool": {
						"encoding": "inplace",
						"label": "bool",
						"numberOfBytes": "1"
					},
					"t_string_storage": {
						"encoding": "bytes",
						"label": "string",
						"numberOfBytes": "32"
					},
					"t_struct(Mentee)10_storage": {
						"encoding": "inplace",
						"label": "struct tutorial3.Mentee",
						"members": [
							{
								"astId": 3,
								"contract": "Week3_part2.sol:tutorial3",
								"label": "name",
								"offset": 0,
								"slot": "0",
								"type": "t_string_storage"
							},
							{
								"astId": 5,
								"contract": "Week3_part2.sol:tutorial3",
								"label": "id",
								"offset": 0,
								"slot": "1",
								"type": "t_string_storage"
							},
							{
								"astId": 7,
								"contract": "Week3_part2.sol:tutorial3",
								"label": "isPresent",
								"offset": 0,
								"slot": "2",
								"type": "t_bool"
							},
							{
								"astId": 9,
								"contract": "Week3_part2.sol:tutorial3",
								"label": "age",
								"offset": 0,
								"slot": "3",
								"type": "t_uint256"
							}
						],
						"numberOfBytes": "128"
					},
					"t_uint256": {
						"encoding": "inplace",
						"label": "uint256",
						"numberOfBytes": "32"
					}
				}
			},
			"userdoc": {
				"kind": "user",
				"methods": {},
				"version": 1
			}
		}
	}
}